{
  "contractName": "ERC721",
  "abi": [
    {
      "anonymous": false,
      "inputs": [
        {
          "indexed": true,
          "internalType": "address",
          "name": "_owner",
          "type": "address"
        },
        {
          "indexed": true,
          "internalType": "address",
          "name": "_approved",
          "type": "address"
        },
        {
          "indexed": true,
          "internalType": "uint256",
          "name": "_tokenId",
          "type": "uint256"
        }
      ],
      "name": "Approval",
      "type": "event"
    },
    {
      "anonymous": false,
      "inputs": [
        {
          "indexed": true,
          "internalType": "address",
          "name": "_from",
          "type": "address"
        },
        {
          "indexed": true,
          "internalType": "address",
          "name": "_to",
          "type": "address"
        },
        {
          "indexed": true,
          "internalType": "uint256",
          "name": "_tokenId",
          "type": "uint256"
        }
      ],
      "name": "Transfer",
      "type": "event"
    },
    {
      "inputs": [
        {
          "internalType": "address",
          "name": "_owner",
          "type": "address"
        }
      ],
      "name": "balanceOf",
      "outputs": [
        {
          "internalType": "uint256",
          "name": "",
          "type": "uint256"
        }
      ],
      "stateMutability": "view",
      "type": "function"
    },
    {
      "inputs": [
        {
          "internalType": "uint256",
          "name": "_tokenId",
          "type": "uint256"
        }
      ],
      "name": "ownerOf",
      "outputs": [
        {
          "internalType": "address",
          "name": "",
          "type": "address"
        }
      ],
      "stateMutability": "view",
      "type": "function"
    },
    {
      "inputs": [
        {
          "internalType": "address",
          "name": "_from",
          "type": "address"
        },
        {
          "internalType": "address",
          "name": "_to",
          "type": "address"
        },
        {
          "internalType": "uint256",
          "name": "_tokenId",
          "type": "uint256"
        }
      ],
      "name": "transferFrom",
      "outputs": [],
      "stateMutability": "payable",
      "type": "function"
    },
    {
      "inputs": [
        {
          "internalType": "address",
          "name": "_approved",
          "type": "address"
        },
        {
          "internalType": "uint256",
          "name": "_tokenId",
          "type": "uint256"
        }
      ],
      "name": "approve",
      "outputs": [],
      "stateMutability": "payable",
      "type": "function"
    }
  ],
  "bytecode": "0x608060405234801561001057600080fd5b5061031d806100206000396000f3fe60806040526004361061003f5760003560e01c8063095ea7b31461004457806323b872dd146100605780636352211e1461007c57806370a08231146100b9575b600080fd5b61005e600480360381019061005991906101a6565b6100f6565b005b61007a600480360381019061007591906101e6565b6100fa565b005b34801561008857600080fd5b506100a3600480360381019061009e9190610239565b6100ff565b6040516100b09190610275565b60405180910390f35b3480156100c557600080fd5b506100e060048036038101906100db9190610290565b610106565b6040516100ed91906102cc565b60405180910390f35b5050565b505050565b6000919050565b6000919050565b600080fd5b600073ffffffffffffffffffffffffffffffffffffffff82169050919050565b600061013d82610112565b9050919050565b61014d81610132565b811461015857600080fd5b50565b60008135905061016a81610144565b92915050565b6000819050919050565b61018381610170565b811461018e57600080fd5b50565b6000813590506101a08161017a565b92915050565b600080604083850312156101bd576101bc61010d565b5b60006101cb8582860161015b565b92505060206101dc85828601610191565b9150509250929050565b6000806000606084860312156101ff576101fe61010d565b5b600061020d8682870161015b565b935050602061021e8682870161015b565b925050604061022f86828701610191565b9150509250925092565b60006020828403121561024f5761024e61010d565b5b600061025d84828501610191565b91505092915050565b61026f81610132565b82525050565b600060208201905061028a6000830184610266565b92915050565b6000602082840312156102a6576102a561010d565b5b60006102b48482850161015b565b91505092915050565b6102c681610170565b82525050565b60006020820190506102e160008301846102bd565b9291505056fea26469706673582212201b119cdcdcf508ebb0a74dc24b82528d534167736113b693c9e342abf1e4684a64736f6c634300080d0033",
  "immutableReferences": {},
  "source": "// SPDX-License-Identifier: MIT\npragma solidity >=0.5.0 <0.9.1;\n\ncontract ERC721  {\n  event Transfer(address indexed _from, address indexed _to, uint256 indexed _tokenId);\n  event Approval(address indexed _owner, address indexed _approved, uint256 indexed _tokenId);\n\n  function  balanceOf(address _owner) virtual  external  view returns (uint256){}\n  function  ownerOf(uint256 _tokenId) virtual   external view returns (address){}\n  function  transferFrom(address _from, address _to, uint256 _tokenId) virtual  external payable{}\n  function  approve(address _approved, uint256 _tokenId) virtual  external payable{}\n}\n",
  "sourcePath": "/Users/amilcar/cryptoZombies/cryptoZombiesRepo/cryptoZombie/contracts/erc721.sol",
  "compiler": {
    "name": "solc",
    "version": "0.8.13+commit.abaa5c0e.Emscripten.clang"
  },
  "schemaVersion": "3.4.10",
  "updatedAt": "2022-10-19T22:40:58.058Z",
  "devdoc": {
    "kind": "dev",
    "methods": {},
    "version": 1
  },
  "userdoc": {
    "kind": "user",
    "methods": {},
    "version": 1
  }
}