{
  "contractName": "ZombieAttack",
  "abi": [
    {
      "anonymous": false,
      "inputs": [
        {
          "indexed": false,
          "internalType": "uint256",
          "name": "zombieId",
          "type": "uint256"
        },
        {
          "indexed": false,
          "internalType": "string",
          "name": "name",
          "type": "string"
        },
        {
          "indexed": false,
          "internalType": "uint256",
          "name": "dna",
          "type": "uint256"
        }
      ],
      "name": "NewZombie",
      "type": "event"
    },
    {
      "anonymous": false,
      "inputs": [
        {
          "indexed": true,
          "internalType": "address",
          "name": "previousOwner",
          "type": "address"
        },
        {
          "indexed": true,
          "internalType": "address",
          "name": "newOwner",
          "type": "address"
        }
      ],
      "name": "OwnershipTransferred",
      "type": "event"
    },
    {
      "inputs": [
        {
          "internalType": "uint256",
          "name": "_zombieId",
          "type": "uint256"
        },
        {
          "internalType": "uint256",
          "name": "_newDNA",
          "type": "uint256"
        }
      ],
      "name": "changeDNA",
      "outputs": [],
      "stateMutability": "nonpayable",
      "type": "function"
    },
    {
      "inputs": [
        {
          "internalType": "uint256",
          "name": "_zombieId",
          "type": "uint256"
        },
        {
          "internalType": "string",
          "name": "_newName",
          "type": "string"
        }
      ],
      "name": "changeName",
      "outputs": [],
      "stateMutability": "nonpayable",
      "type": "function"
    },
    {
      "inputs": [
        {
          "internalType": "string",
          "name": "_name",
          "type": "string"
        }
      ],
      "name": "createRandomZombie",
      "outputs": [],
      "stateMutability": "nonpayable",
      "type": "function"
    },
    {
      "inputs": [
        {
          "internalType": "uint256",
          "name": "_zombieId",
          "type": "uint256"
        },
        {
          "internalType": "uint256",
          "name": "_kittyId",
          "type": "uint256"
        }
      ],
      "name": "feedOnKitty",
      "outputs": [],
      "stateMutability": "nonpayable",
      "type": "function"
    },
    {
      "inputs": [
        {
          "internalType": "address",
          "name": "_owner",
          "type": "address"
        }
      ],
      "name": "getZombiesByOwner",
      "outputs": [
        {
          "internalType": "uint256[]",
          "name": "",
          "type": "uint256[]"
        }
      ],
      "stateMutability": "view",
      "type": "function"
    },
    {
      "inputs": [],
      "name": "isOwner",
      "outputs": [
        {
          "internalType": "bool",
          "name": "",
          "type": "bool"
        }
      ],
      "stateMutability": "view",
      "type": "function"
    },
    {
      "inputs": [
        {
          "internalType": "uint256",
          "name": "_zombieId",
          "type": "uint256"
        }
      ],
      "name": "levelUp",
      "outputs": [],
      "stateMutability": "payable",
      "type": "function"
    },
    {
      "inputs": [],
      "name": "owner",
      "outputs": [
        {
          "internalType": "address",
          "name": "",
          "type": "address"
        }
      ],
      "stateMutability": "view",
      "type": "function"
    },
    {
      "inputs": [],
      "name": "renounceOwnership",
      "outputs": [],
      "stateMutability": "nonpayable",
      "type": "function"
    },
    {
      "inputs": [
        {
          "internalType": "address",
          "name": "_address",
          "type": "address"
        }
      ],
      "name": "setKittyContractAddress",
      "outputs": [],
      "stateMutability": "nonpayable",
      "type": "function"
    },
    {
      "inputs": [
        {
          "internalType": "uint256",
          "name": "_fee",
          "type": "uint256"
        }
      ],
      "name": "setLevelUpFee",
      "outputs": [],
      "stateMutability": "nonpayable",
      "type": "function"
    },
    {
      "inputs": [
        {
          "internalType": "address",
          "name": "newOwner",
          "type": "address"
        }
      ],
      "name": "transferOwnership",
      "outputs": [],
      "stateMutability": "nonpayable",
      "type": "function"
    },
    {
      "inputs": [],
      "name": "withdraw",
      "outputs": [],
      "stateMutability": "nonpayable",
      "type": "function"
    },
    {
      "inputs": [
        {
          "internalType": "uint256",
          "name": "",
          "type": "uint256"
        }
      ],
      "name": "zombieToOwner",
      "outputs": [
        {
          "internalType": "address",
          "name": "",
          "type": "address"
        }
      ],
      "stateMutability": "view",
      "type": "function"
    },
    {
      "inputs": [
        {
          "internalType": "uint256",
          "name": "",
          "type": "uint256"
        }
      ],
      "name": "zombies",
      "outputs": [
        {
          "internalType": "string",
          "name": "name",
          "type": "string"
        },
        {
          "internalType": "uint256",
          "name": "dna",
          "type": "uint256"
        },
        {
          "internalType": "uint32",
          "name": "level",
          "type": "uint32"
        },
        {
          "internalType": "uint32",
          "name": "readyTime",
          "type": "uint32"
        },
        {
          "internalType": "uint16",
          "name": "winCount",
          "type": "uint16"
        },
        {
          "internalType": "uint16",
          "name": "lossCount",
          "type": "uint16"
        }
      ],
      "stateMutability": "view",
      "type": "function"
    },
    {
      "inputs": [
        {
          "internalType": "uint256",
          "name": "_zombieId",
          "type": "uint256"
        },
        {
          "internalType": "uint256",
          "name": "_targetId",
          "type": "uint256"
        }
      ],
      "name": "attack",
      "outputs": [],
      "stateMutability": "nonpayable",
      "type": "function"
    }
  ],
  "bytecode": "0x60806040526010600155600154600a6200001a919062000295565b6002556201518060035566038d7ea4c6800060085560466009556000600a553480156200004657600080fd5b50336000806101000a81548173ffffffffffffffffffffffffffffffffffffffff021916908373ffffffffffffffffffffffffffffffffffffffff16021790555060008054906101000a900473ffffffffffffffffffffffffffffffffffffffff1673ffffffffffffffffffffffffffffffffffffffff16600073ffffffffffffffffffffffffffffffffffffffff167f8be0079c531659141344cd1fd0a4f28419497f9722a3daafe3b4186f6b6457e060405160405180910390a3620002e6565b7f4e487b7100000000000000000000000000000000000000000000000000000000600052601160045260246000fd5b60008160011c9050919050565b6000808291508390505b600185111562000196578086048111156200016e576200016d62000108565b5b60018516156200017e5780820291505b80810290506200018e8562000137565b94506200014e565b94509492505050565b600082620001b1576001905062000284565b81620001c1576000905062000284565b8160018114620001da5760028114620001e5576200021b565b600191505062000284565b60ff841115620001fa57620001f962000108565b5b8360020a91508482111562000214576200021362000108565b5b5062000284565b5060208310610133831016604e8410600b8410161715620002555782820a9050838111156200024f576200024e62000108565b5b62000284565b62000264848484600162000144565b925090508184048111156200027e576200027d62000108565b5b81810290505b9392505050565b6000819050919050565b6000620002a2826200028b565b9150620002af836200028b565b9250620002de7fffffffffffffffffffffffffffffffffffffffffffffffffffffffffffffffff84846200019f565b905092915050565b6121eb80620002f66000396000f3fe6080604052600436106100f35760003560e01c8063715018a61161008a578063c39cbef111610059578063c39cbef1146102f8578063ccf670f814610321578063e1fa76381461034a578063f2fde38b14610373576100f3565b8063715018a6146102625780637bff0a01146102795780638da5cb5b146102a25780638f32d59b146102cd576100f3565b80633ccfd60b116100c65780633ccfd60b146101a85780634412e104146101bf578063528b7b8f146101fc5780635f4623f114610239576100f3565b806302daa3ed146100f85780630ce90ec21461012157806317a7f4cc1461013d5780632052465e14610166575b600080fd5b34801561010457600080fd5b5061011f600480360381019061011a9190611617565b61039c565b005b61013b60048036038101906101369190611657565b610484565b005b34801561014957600080fd5b50610164600480360381019061015f9190611617565b6104f9565b005b34801561017257600080fd5b5061018d60048036038101906101889190611657565b610617565b60405161019f96959493929190611768565b60405180910390f35b3480156101b457600080fd5b506101bd610727565b005b3480156101cb57600080fd5b506101e660048036038101906101e1919061182e565b61078e565b6040516101f39190611919565b60405180910390f35b34801561020857600080fd5b50610223600480360381019061021e9190611657565b6108e0565b604051610230919061194a565b60405180910390f35b34801561024557600080fd5b50610260600480360381019061025b919061182e565b610913565b005b34801561026e57600080fd5b50610277610968565b005b34801561028557600080fd5b506102a0600480360381019061029b9190611a9a565b610a37565b005b3480156102ae57600080fd5b506102b7610ad4565b6040516102c4919061194a565b60405180910390f35b3480156102d957600080fd5b506102e2610afd565b6040516102ef9190611afe565b60405180910390f35b34801561030457600080fd5b5061031f600480360381019061031a9190611b79565b610b54565b005b34801561032d57600080fd5b5061034860048036038101906103439190611657565b610c48565b005b34801561035657600080fd5b50610371600480360381019061036c9190611617565b610c63565b005b34801561037f57600080fd5b5061039a6004803603810190610395919061182e565b610ec4565b005b60148281600482815481106103b4576103b3611bd9565b5b906000526020600020906003020160020160009054906101000a900463ffffffff1663ffffffff1610156103e757600080fd5b836005600082815260200190815260200160002060009054906101000a900473ffffffffffffffffffffffffffffffffffffffff1673ffffffffffffffffffffffffffffffffffffffff163373ffffffffffffffffffffffffffffffffffffffff161461045357600080fd5b836004868154811061046857610467611bd9565b5b9060005260206000209060030201600101819055505050505050565b600854341461049257600080fd5b600481815481106104a6576104a5611bd9565b5b9060005260206000209060030201600201600081819054906101000a900463ffffffff16809291906104d790611c37565b91906101000a81548163ffffffff021916908363ffffffff1602179055505050565b6000600760009054906101000a900473ffffffffffffffffffffffffffffffffffffffff1673ffffffffffffffffffffffffffffffffffffffff1663e98b7f4d836040518263ffffffff1660e01b81526004016105569190611c63565b61014060405180830381865afa158015610574573d6000803e3d6000fd5b505050506040513d601f19601f820116820180604052508101906105989190611cbf565b9091929394959697985090919293949596975090919293949596509091929394955090919293945090919293509091925090915090508091505061061283826040518060400160405280600581526020017f6b69747479000000000000000000000000000000000000000000000000000000815250610ee1565b505050565b6004818154811061062757600080fd5b906000526020600020906003020160009150905080600001805461064a90611dcd565b80601f016020809104026020016040519081016040528092919081815260200182805461067690611dcd565b80156106c35780601f10610698576101008083540402835291602001916106c3565b820191906000526020600020905b8154815290600101906020018083116106a657829003601f168201915b5050505050908060010154908060020160009054906101000a900463ffffffff16908060020160049054906101000a900463ffffffff16908060020160089054906101000a900461ffff169080600201600a9054906101000a900461ffff16905086565b61072f610afd565b61073857600080fd5b6000610742610ad4565b90508073ffffffffffffffffffffffffffffffffffffffff166108fc479081150290604051600060405180830381858888f1935050505015801561078a573d6000803e3d6000fd5b5050565b60606000600660008473ffffffffffffffffffffffffffffffffffffffff1673ffffffffffffffffffffffffffffffffffffffff1681526020019081526020016000205467ffffffffffffffff8111156107eb576107ea61196f565b5b6040519080825280602002602001820160405280156108195781602001602082028036833780820191505090505b5090506000805b6004805490508110156108d5578473ffffffffffffffffffffffffffffffffffffffff166005600083815260200190815260200160002060009054906101000a900473ffffffffffffffffffffffffffffffffffffffff1673ffffffffffffffffffffffffffffffffffffffff16036108c257808383815181106108a7576108a6611bd9565b5b60200260200101818152505081806108be90611dfe565b9250505b80806108cd90611dfe565b915050610820565b508192505050919050565b60056020528060005260406000206000915054906101000a900473ffffffffffffffffffffffffffffffffffffffff1681565b61091b610afd565b61092457600080fd5b80600760006101000a81548173ffffffffffffffffffffffffffffffffffffffff021916908373ffffffffffffffffffffffffffffffffffffffff16021790555050565b610970610afd565b61097957600080fd5b600073ffffffffffffffffffffffffffffffffffffffff1660008054906101000a900473ffffffffffffffffffffffffffffffffffffffff1673ffffffffffffffffffffffffffffffffffffffff167f8be0079c531659141344cd1fd0a4f28419497f9722a3daafe3b4186f6b6457e060405160405180910390a360008060006101000a81548173ffffffffffffffffffffffffffffffffffffffff021916908373ffffffffffffffffffffffffffffffffffffffff160217905550565b6000600660003373ffffffffffffffffffffffffffffffffffffffff1673ffffffffffffffffffffffffffffffffffffffff1681526020019081526020016000205414610ab9576040517f08c379a0000000000000000000000000000000000000000000000000000000008152600401610ab090611eb8565b60405180910390fd5b6000610ac48261107d565b9050610ad082826110c2565b5050565b60008060009054906101000a900473ffffffffffffffffffffffffffffffffffffffff16905090565b60008060009054906101000a900473ffffffffffffffffffffffffffffffffffffffff1673ffffffffffffffffffffffffffffffffffffffff163373ffffffffffffffffffffffffffffffffffffffff1614905090565b6002838160048281548110610b6c57610b6b611bd9565b5b906000526020600020906003020160020160009054906101000a900463ffffffff1663ffffffff161015610b9f57600080fd5b846005600082815260200190815260200160002060009054906101000a900473ffffffffffffffffffffffffffffffffffffffff1673ffffffffffffffffffffffffffffffffffffffff163373ffffffffffffffffffffffffffffffffffffffff1614610c0b57600080fd5b848460048881548110610c2157610c20611bd9565b5b90600052602060002090600302016000019190610c3f9291906114a4565b50505050505050565b610c50610afd565b610c5957600080fd5b8060088190555050565b816005600082815260200190815260200160002060009054906101000a900473ffffffffffffffffffffffffffffffffffffffff1673ffffffffffffffffffffffffffffffffffffffff163373ffffffffffffffffffffffffffffffffffffffff1614610ccf57600080fd5b600060048481548110610ce557610ce4611bd9565b5b90600052602060002090600302019050600060048481548110610d0b57610d0a611bd9565b5b906000526020600020906003020190506000610d2760646112f8565b90506009548111610e385782600201600881819054906101000a900461ffff1680929190610d5490611ed8565b91906101000a81548161ffff021916908361ffff1602179055505082600201600081819054906101000a900463ffffffff1680929190610d9390611c37565b91906101000a81548163ffffffff021916908363ffffffff1602179055505081600201600a81819054906101000a900461ffff1680929190610dd490611ed8565b91906101000a81548161ffff021916908361ffff16021790555050610e338683600101546040518060400160405280600681526020017f7a6f6d6269650000000000000000000000000000000000000000000000000000815250610ee1565b610ebc565b82600201600a81819054906101000a900461ffff1680929190610e5a90611ed8565b91906101000a81548161ffff021916908361ffff1602179055505081600201600881819054906101000a900461ffff1680929190610e9790611ed8565b91906101000a81548161ffff021916908361ffff16021790555050610ebb83611354565b5b505050505050565b610ecc610afd565b610ed557600080fd5b610ede81611387565b50565b826005600082815260200190815260200160002060009054906101000a900473ffffffffffffffffffffffffffffffffffffffff1673ffffffffffffffffffffffffffffffffffffffff163373ffffffffffffffffffffffffffffffffffffffff1614610f4d57600080fd5b600060048581548110610f6357610f62611bd9565b5b90600052602060002090600302019050610f7c8161147d565b610f8557600080fd5b60025484610f939190611f31565b935060006002826001015486610fa99190611f62565b610fb39190611fb8565b9050604051602001610fc490612040565b6040516020818303038152906040528051906020012084604051602001610feb9190612086565b60405160208183030381529060405280519060200120036110365760636064826110159190611f31565b82611020919061209d565b61102a9190611f62565b905061103582611354565b5b6110756040518060400160405280600681526020017f4e6f4e616d650000000000000000000000000000000000000000000000000000815250826110c2565b505050505050565b600080826040516020016110919190612086565b6040516020818303038152906040528051906020012060001c9050600254816110ba9190611f31565b915050919050565b60046040518060c00160405280848152602001838152602001600163ffffffff168152602001600354426110f69190611f62565b63ffffffff168152602001600061ffff168152602001600061ffff168152509080600181540180825580915050600190039060005260206000209060030201600090919091909150600082015181600001908051906020019061115a92919061152a565b506020820151816001015560408201518160020160006101000a81548163ffffffff021916908363ffffffff16021790555060608201518160020160046101000a81548163ffffffff021916908363ffffffff16021790555060808201518160020160086101000a81548161ffff021916908361ffff16021790555060a082015181600201600a6101000a81548161ffff021916908361ffff16021790555050506000600160048054905061120f919061209d565b9050336005600083815260200190815260200160002060006101000a81548173ffffffffffffffffffffffffffffffffffffffff021916908373ffffffffffffffffffffffffffffffffffffffff160217905550600660003373ffffffffffffffffffffffffffffffffffffffff1673ffffffffffffffffffffffffffffffffffffffff16815260200190815260200160002060008154809291906112b390611dfe565b91905055507f88f026aacbbecc90c18411df4b1185fd8d9be2470f1962f192bf84a27d0704b78184846040516112eb939291906120d1565b60405180910390a1505050565b6000600a600081548092919061130d90611dfe565b9190505550814233600a5460405160200161132a93929190612178565b6040516020818303038152906040528051906020012060001c61134d9190611f31565b9050919050565b600354426113629190611f62565b8160020160046101000a81548163ffffffff021916908363ffffffff16021790555050565b600073ffffffffffffffffffffffffffffffffffffffff168173ffffffffffffffffffffffffffffffffffffffff16036113c057600080fd5b8073ffffffffffffffffffffffffffffffffffffffff1660008054906101000a900473ffffffffffffffffffffffffffffffffffffffff1673ffffffffffffffffffffffffffffffffffffffff167f8be0079c531659141344cd1fd0a4f28419497f9722a3daafe3b4186f6b6457e060405160405180910390a3806000806101000a81548173ffffffffffffffffffffffffffffffffffffffff021916908373ffffffffffffffffffffffffffffffffffffffff16021790555050565b6000428260020160049054906101000a900463ffffffff1663ffffffff1611159050919050565b8280546114b090611dcd565b90600052602060002090601f0160209004810192826114d25760008555611519565b82601f106114eb57803560ff1916838001178555611519565b82800160010185558215611519579182015b828111156115185782358255916020019190600101906114fd565b5b50905061152691906115b0565b5090565b82805461153690611dcd565b90600052602060002090601f016020900481019282611558576000855561159f565b82601f1061157157805160ff191683800117855561159f565b8280016001018555821561159f579182015b8281111561159e578251825591602001919060010190611583565b5b5090506115ac91906115b0565b5090565b5b808211156115c95760008160009055506001016115b1565b5090565b6000604051905090565b600080fd5b600080fd5b6000819050919050565b6115f4816115e1565b81146115ff57600080fd5b50565b600081359050611611816115eb565b92915050565b6000806040838503121561162e5761162d6115d7565b5b600061163c85828601611602565b925050602061164d85828601611602565b9150509250929050565b60006020828403121561166d5761166c6115d7565b5b600061167b84828501611602565b91505092915050565b600081519050919050565b600082825260208201905092915050565b60005b838110156116be5780820151818401526020810190506116a3565b838111156116cd576000848401525b50505050565b6000601f19601f8301169050919050565b60006116ef82611684565b6116f9818561168f565b93506117098185602086016116a0565b611712816116d3565b840191505092915050565b611726816115e1565b82525050565b600063ffffffff82169050919050565b6117458161172c565b82525050565b600061ffff82169050919050565b6117628161174b565b82525050565b600060c082019050818103600083015261178281896116e4565b9050611791602083018861171d565b61179e604083018761173c565b6117ab606083018661173c565b6117b86080830185611759565b6117c560a0830184611759565b979650505050505050565b600073ffffffffffffffffffffffffffffffffffffffff82169050919050565b60006117fb826117d0565b9050919050565b61180b816117f0565b811461181657600080fd5b50565b60008135905061182881611802565b92915050565b600060208284031215611844576118436115d7565b5b600061185284828501611819565b91505092915050565b600081519050919050565b600082825260208201905092915050565b6000819050602082019050919050565b611890816115e1565b82525050565b60006118a28383611887565b60208301905092915050565b6000602082019050919050565b60006118c68261185b565b6118d08185611866565b93506118db83611877565b8060005b8381101561190c5781516118f38882611896565b97506118fe836118ae565b9250506001810190506118df565b5085935050505092915050565b6000602082019050818103600083015261193381846118bb565b905092915050565b611944816117f0565b82525050565b600060208201905061195f600083018461193b565b92915050565b600080fd5b600080fd5b7f4e487b7100000000000000000000000000000000000000000000000000000000600052604160045260246000fd5b6119a7826116d3565b810181811067ffffffffffffffff821117156119c6576119c561196f565b5b80604052505050565b60006119d96115cd565b90506119e5828261199e565b919050565b600067ffffffffffffffff821115611a0557611a0461196f565b5b611a0e826116d3565b9050602081019050919050565b82818337600083830152505050565b6000611a3d611a38846119ea565b6119cf565b905082815260208101848484011115611a5957611a5861196a565b5b611a64848285611a1b565b509392505050565b600082601f830112611a8157611a80611965565b5b8135611a91848260208601611a2a565b91505092915050565b600060208284031215611ab057611aaf6115d7565b5b600082013567ffffffffffffffff811115611ace57611acd6115dc565b5b611ada84828501611a6c565b91505092915050565b60008115159050919050565b611af881611ae3565b82525050565b6000602082019050611b136000830184611aef565b92915050565b600080fd5b600080fd5b60008083601f840112611b3957611b38611965565b5b8235905067ffffffffffffffff811115611b5657611b55611b19565b5b602083019150836001820283011115611b7257611b71611b1e565b5b9250929050565b600080600060408486031215611b9257611b916115d7565b5b6000611ba086828701611602565b935050602084013567ffffffffffffffff811115611bc157611bc06115dc565b5b611bcd86828701611b23565b92509250509250925092565b7f4e487b7100000000000000000000000000000000000000000000000000000000600052603260045260246000fd5b7f4e487b7100000000000000000000000000000000000000000000000000000000600052601160045260246000fd5b6000611c428261172c565b915063ffffffff8203611c5857611c57611c08565b5b600182019050919050565b6000602082019050611c78600083018461171d565b92915050565b611c8781611ae3565b8114611c9257600080fd5b50565b600081519050611ca481611c7e565b92915050565b600081519050611cb9816115eb565b92915050565b6000806000806000806000806000806101408b8d031215611ce357611ce26115d7565b5b6000611cf18d828e01611c95565b9a50506020611d028d828e01611c95565b9950506040611d138d828e01611caa565b9850506060611d248d828e01611caa565b9750506080611d358d828e01611caa565b96505060a0611d468d828e01611caa565b95505060c0611d578d828e01611caa565b94505060e0611d688d828e01611caa565b935050610100611d7a8d828e01611caa565b925050610120611d8c8d828e01611caa565b9150509295989b9194979a5092959850565b7f4e487b7100000000000000000000000000000000000000000000000000000000600052602260045260246000fd5b60006002820490506001821680611de557607f821691505b602082108103611df857611df7611d9e565b5b50919050565b6000611e09826115e1565b91507fffffffffffffffffffffffffffffffffffffffffffffffffffffffffffffffff8203611e3b57611e3a611c08565b5b600182019050919050565b7f4572726f723a20796f75206f6e6c7920686176652061626c6520746f2063726560008201527f6174652031207a6f6d6269652000000000000000000000000000000000000000602082015250565b6000611ea2602d8361168f565b9150611ead82611e46565b604082019050919050565b60006020820190508181036000830152611ed181611e95565b9050919050565b6000611ee38261174b565b915061ffff8203611ef757611ef6611c08565b5b600182019050919050565b7f4e487b7100000000000000000000000000000000000000000000000000000000600052601260045260246000fd5b6000611f3c826115e1565b9150611f47836115e1565b925082611f5757611f56611f02565b5b828206905092915050565b6000611f6d826115e1565b9150611f78836115e1565b9250827fffffffffffffffffffffffffffffffffffffffffffffffffffffffffffffffff03821115611fad57611fac611c08565b5b828201905092915050565b6000611fc3826115e1565b9150611fce836115e1565b925082611fde57611fdd611f02565b5b828204905092915050565b600081905092915050565b7f6b69747479000000000000000000000000000000000000000000000000000000600082015250565b600061202a600583611fe9565b915061203582611ff4565b600582019050919050565b600061204b8261201d565b9150819050919050565b600061206082611684565b61206a8185611fe9565b935061207a8185602086016116a0565b80840191505092915050565b60006120928284612055565b915081905092915050565b60006120a8826115e1565b91506120b3836115e1565b9250828210156120c6576120c5611c08565b5b828203905092915050565b60006060820190506120e6600083018661171d565b81810360208301526120f881856116e4565b9050612107604083018461171d565b949350505050565b6000819050919050565b61212a612125826115e1565b61210f565b82525050565b60008160601b9050919050565b600061214882612130565b9050919050565b600061215a8261213d565b9050919050565b61217261216d826117f0565b61214f565b82525050565b60006121848286612119565b6020820191506121948285612161565b6014820191506121a48284612119565b60208201915081905094935050505056fea264697066735822122030bc56151de3e4dccd2829a9ea84cc83d1d3f9178c842bca68073bf07355dfaf64736f6c634300080d0033",
  "immutableReferences": {},
  "source": "// SPDX-License-Identifier: MIT\npragma solidity >=0.7.0 <0.9.1;\n\nimport \"./ZombieHelper.sol\";\n\ncontract ZombieAttack is ZombieHelper {\n\n//var to septup the probability of win\nuint attackVictoryProbability = 70;\n\n//We have to build a function that build a random number \n    uint randNonce = 0;\nfunction randMod(uint _modulus) internal returns(uint){\n    //increase the randNonce\n    randNonce++;\n    return uint(keccak256(abi.encodePacked(block.timestamp,msg.sender,randNonce))) % _modulus;\n    }\n\n//function attack this get the Id of 2 zombies \nfunction attack(uint _zombieId, uint _targetId) external onlyOwnerOf(_zombieId){\n//declare a storage the look up my zombies\nZombie storage myZombie = zombies[_zombieId];\nZombie storage enemyZombie = zombies[_targetId];\n//call ours randon function to determine the outcome of the battles\n uint rand = randMod(100);\n//here determine who zombies win and loss and increment de account\n if(rand <= attackVictoryProbability){\n    myZombie.winCount++;\n    myZombie.level++;\n    enemyZombie.lossCount++;\n   //here I call the function an pass how feed the enemy Zombie\n    feedAndMultiply(_zombieId, enemyZombie.dna, \"zombie\");\n }else{\n    myZombie.lossCount++;\n    enemyZombie.winCount++;\n    _triggerCooldown(myZombie);\n\n }\n\n}\n\n}",
  "sourcePath": "/Users/amilcar/cryptoZombies/cryptoZombies/contracts/zombieAttack.sol",
  "compiler": {
    "name": "solc",
    "version": "0.8.13+commit.abaa5c0e.Emscripten.clang"
  },
  "schemaVersion": "3.4.10",
  "updatedAt": "2022-10-18T15:49:44.878Z",
  "devdoc": {
    "kind": "dev",
    "methods": {
      "isOwner()": {
        "returns": {
          "_0": "true if `msg.sender` is the owner of the contract."
        }
      },
      "owner()": {
        "returns": {
          "_0": "the address of the owner."
        }
      },
      "renounceOwnership()": {
        "details": "Allows the current owner to relinquish control of the contract."
      },
      "transferOwnership(address)": {
        "details": "Allows the current owner to transfer control of the contract to a newOwner.",
        "params": {
          "newOwner": "The address to transfer ownership to."
        }
      }
    },
    "version": 1
  },
  "userdoc": {
    "kind": "user",
    "methods": {
      "renounceOwnership()": {
        "notice": "Renouncing to ownership will leave the contract without an owner. It will not be possible to call the functions with the `onlyOwner` modifier anymore."
      }
    },
    "version": 1
  }
}