{
  "contractName": "ZombieHelper",
  "abi": [
    {
      "anonymous": false,
      "inputs": [
        {
          "indexed": false,
          "internalType": "uint256",
          "name": "zombieId",
          "type": "uint256"
        },
        {
          "indexed": false,
          "internalType": "string",
          "name": "name",
          "type": "string"
        },
        {
          "indexed": false,
          "internalType": "uint256",
          "name": "dna",
          "type": "uint256"
        }
      ],
      "name": "NewZombie",
      "type": "event"
    },
    {
      "anonymous": false,
      "inputs": [
        {
          "indexed": true,
          "internalType": "address",
          "name": "previousOwner",
          "type": "address"
        },
        {
          "indexed": true,
          "internalType": "address",
          "name": "newOwner",
          "type": "address"
        }
      ],
      "name": "OwnershipTransferred",
      "type": "event"
    },
    {
      "inputs": [
        {
          "internalType": "string",
          "name": "_name",
          "type": "string"
        }
      ],
      "name": "createRandomZombie",
      "outputs": [],
      "stateMutability": "nonpayable",
      "type": "function"
    },
    {
      "inputs": [
        {
          "internalType": "uint256",
          "name": "_zombieId",
          "type": "uint256"
        },
        {
          "internalType": "uint256",
          "name": "_kittyId",
          "type": "uint256"
        }
      ],
      "name": "feedOnKitty",
      "outputs": [],
      "stateMutability": "nonpayable",
      "type": "function"
    },
    {
      "inputs": [],
      "name": "isOwner",
      "outputs": [
        {
          "internalType": "bool",
          "name": "",
          "type": "bool"
        }
      ],
      "stateMutability": "view",
      "type": "function"
    },
    {
      "inputs": [],
      "name": "owner",
      "outputs": [
        {
          "internalType": "address",
          "name": "",
          "type": "address"
        }
      ],
      "stateMutability": "view",
      "type": "function"
    },
    {
      "inputs": [],
      "name": "renounceOwnership",
      "outputs": [],
      "stateMutability": "nonpayable",
      "type": "function"
    },
    {
      "inputs": [
        {
          "internalType": "address",
          "name": "_address",
          "type": "address"
        }
      ],
      "name": "setKittyContractAddress",
      "outputs": [],
      "stateMutability": "nonpayable",
      "type": "function"
    },
    {
      "inputs": [
        {
          "internalType": "address",
          "name": "newOwner",
          "type": "address"
        }
      ],
      "name": "transferOwnership",
      "outputs": [],
      "stateMutability": "nonpayable",
      "type": "function"
    },
    {
      "inputs": [
        {
          "internalType": "uint256",
          "name": "",
          "type": "uint256"
        }
      ],
      "name": "zombieToOwner",
      "outputs": [
        {
          "internalType": "address",
          "name": "",
          "type": "address"
        }
      ],
      "stateMutability": "view",
      "type": "function"
    },
    {
      "inputs": [
        {
          "internalType": "uint256",
          "name": "",
          "type": "uint256"
        }
      ],
      "name": "zombies",
      "outputs": [
        {
          "internalType": "string",
          "name": "name",
          "type": "string"
        },
        {
          "internalType": "uint256",
          "name": "dna",
          "type": "uint256"
        },
        {
          "internalType": "uint32",
          "name": "level",
          "type": "uint32"
        },
        {
          "internalType": "uint32",
          "name": "readyTime",
          "type": "uint32"
        },
        {
          "internalType": "uint16",
          "name": "winCount",
          "type": "uint16"
        },
        {
          "internalType": "uint16",
          "name": "lossCount",
          "type": "uint16"
        }
      ],
      "stateMutability": "view",
      "type": "function"
    },
    {
      "inputs": [],
      "name": "withdraw",
      "outputs": [],
      "stateMutability": "nonpayable",
      "type": "function"
    },
    {
      "inputs": [
        {
          "internalType": "uint256",
          "name": "_fee",
          "type": "uint256"
        }
      ],
      "name": "setLevelUpFee",
      "outputs": [],
      "stateMutability": "nonpayable",
      "type": "function"
    },
    {
      "inputs": [
        {
          "internalType": "uint256",
          "name": "_zombieId",
          "type": "uint256"
        }
      ],
      "name": "levelUp",
      "outputs": [],
      "stateMutability": "payable",
      "type": "function"
    },
    {
      "inputs": [
        {
          "internalType": "uint256",
          "name": "_zombieId",
          "type": "uint256"
        },
        {
          "internalType": "string",
          "name": "_newName",
          "type": "string"
        }
      ],
      "name": "changeName",
      "outputs": [],
      "stateMutability": "nonpayable",
      "type": "function"
    },
    {
      "inputs": [
        {
          "internalType": "uint256",
          "name": "_zombieId",
          "type": "uint256"
        },
        {
          "internalType": "uint256",
          "name": "_newDNA",
          "type": "uint256"
        }
      ],
      "name": "changeDNA",
      "outputs": [],
      "stateMutability": "nonpayable",
      "type": "function"
    },
    {
      "inputs": [
        {
          "internalType": "address",
          "name": "_owner",
          "type": "address"
        }
      ],
      "name": "getZombiesByOwner",
      "outputs": [
        {
          "internalType": "uint256[]",
          "name": "",
          "type": "uint256[]"
        }
      ],
      "stateMutability": "view",
      "type": "function"
    }
  ],
  "bytecode": "0x60806040526010600155600154600a6200001a91906200028b565b6002556201518060035566038d7ea4c680006008553480156200003c57600080fd5b50336000806101000a81548173ffffffffffffffffffffffffffffffffffffffff021916908373ffffffffffffffffffffffffffffffffffffffff16021790555060008054906101000a900473ffffffffffffffffffffffffffffffffffffffff1673ffffffffffffffffffffffffffffffffffffffff16600073ffffffffffffffffffffffffffffffffffffffff167f8be0079c531659141344cd1fd0a4f28419497f9722a3daafe3b4186f6b6457e060405160405180910390a3620002dc565b7f4e487b7100000000000000000000000000000000000000000000000000000000600052601160045260246000fd5b60008160011c9050919050565b6000808291508390505b60018511156200018c57808604811115620001645762000163620000fe565b5b6001851615620001745780820291505b808102905062000184856200012d565b945062000144565b94509492505050565b600082620001a757600190506200027a565b81620001b757600090506200027a565b8160018114620001d05760028114620001db5762000211565b60019150506200027a565b60ff841115620001f057620001ef620000fe565b5b8360020a9150848211156200020a5762000209620000fe565b5b506200027a565b5060208310610133831016604e8410600b84101617156200024b5782820a905083811115620002455762000244620000fe565b5b6200027a565b6200025a84848460016200013a565b92509050818404811115620002745762000273620000fe565b5b81810290505b9392505050565b6000819050919050565b6000620002988262000281565b9150620002a58362000281565b9250620002d47fffffffffffffffffffffffffffffffffffffffffffffffffffffffffffffffff848462000195565b905092915050565b611f3a80620002ec6000396000f3fe6080604052600436106100e85760003560e01c80635f4623f11161008a5780638f32d59b116100595780638f32d59b146102c2578063c39cbef1146102ed578063ccf670f814610316578063f2fde38b1461033f576100e8565b80635f4623f11461022e578063715018a6146102575780637bff0a011461026e5780638da5cb5b14610297576100e8565b80632052465e116100c65780632052465e1461015b5780633ccfd60b1461019d5780634412e104146101b4578063528b7b8f146101f1576100e8565b806302daa3ed146100ed5780630ce90ec21461011657806317a7f4cc14610132575b600080fd5b3480156100f957600080fd5b50610114600480360381019061010f91906113f9565b610368565b005b610130600480360381019061012b9190611439565b610450565b005b34801561013e57600080fd5b50610159600480360381019061015491906113f9565b6104f3565b005b34801561016757600080fd5b50610182600480360381019061017d9190611439565b610611565b6040516101949695949392919061154a565b60405180910390f35b3480156101a957600080fd5b506101b2610721565b005b3480156101c057600080fd5b506101db60048036038101906101d69190611610565b610788565b6040516101e891906116fb565b60405180910390f35b3480156101fd57600080fd5b5061021860048036038101906102139190611439565b6108da565b604051610225919061172c565b60405180910390f35b34801561023a57600080fd5b5061025560048036038101906102509190611610565b61090d565b005b34801561026357600080fd5b5061026c610962565b005b34801561027a57600080fd5b506102956004803603810190610290919061187c565b610a31565b005b3480156102a357600080fd5b506102ac610ace565b6040516102b9919061172c565b60405180910390f35b3480156102ce57600080fd5b506102d7610af7565b6040516102e491906118e0565b60405180910390f35b3480156102f957600080fd5b50610314600480360381019061030f919061195b565b610b4e565b005b34801561032257600080fd5b5061033d60048036038101906103389190611439565b610c42565b005b34801561034b57600080fd5b5061036660048036038101906103619190611610565b610c5d565b005b60148281600482815481106103805761037f6119bb565b5b906000526020600020906003020160020160009054906101000a900463ffffffff1663ffffffff1610156103b357600080fd5b836005600082815260200190815260200160002060009054906101000a900473ffffffffffffffffffffffffffffffffffffffff1673ffffffffffffffffffffffffffffffffffffffff163373ffffffffffffffffffffffffffffffffffffffff161461041f57600080fd5b8360048681548110610434576104336119bb565b5b9060005260206000209060030201600101819055505050505050565b600854341461045e57600080fd5b6104ad600160048381548110610477576104766119bb565b5b906000526020600020906003020160020160009054906101000a900463ffffffff1663ffffffff16610c7a90919063ffffffff16565b600482815481106104c1576104c06119bb565b5b906000526020600020906003020160020160006101000a81548163ffffffff021916908363ffffffff16021790555050565b6000600760009054906101000a900473ffffffffffffffffffffffffffffffffffffffff1673ffffffffffffffffffffffffffffffffffffffff1663e98b7f4d836040518263ffffffff1660e01b815260040161055091906119ea565b61014060405180830381865afa15801561056e573d6000803e3d6000fd5b505050506040513d601f19601f820116820180604052508101906105929190611a46565b9091929394959697985090919293949596975090919293949596509091929394955090919293945090919293509091925090915090508091505061060c83826040518060400160405280600581526020017f6b69747479000000000000000000000000000000000000000000000000000000815250610cb2565b505050565b6004818154811061062157600080fd5b906000526020600020906003020160009150905080600001805461064490611b54565b80601f016020809104026020016040519081016040528092919081815260200182805461067090611b54565b80156106bd5780601f10610692576101008083540402835291602001916106bd565b820191906000526020600020905b8154815290600101906020018083116106a057829003601f168201915b5050505050908060010154908060020160009054906101000a900463ffffffff16908060020160049054906101000a900463ffffffff16908060020160089054906101000a900461ffff169080600201600a9054906101000a900461ffff16905086565b610729610af7565b61073257600080fd5b600061073c610ace565b90508073ffffffffffffffffffffffffffffffffffffffff166108fc479081150290604051600060405180830381858888f19350505050158015610784573d6000803e3d6000fd5b5050565b60606000600660008473ffffffffffffffffffffffffffffffffffffffff1673ffffffffffffffffffffffffffffffffffffffff1681526020019081526020016000205467ffffffffffffffff8111156107e5576107e4611751565b5b6040519080825280602002602001820160405280156108135781602001602082028036833780820191505090505b5090506000805b6004805490508110156108cf578473ffffffffffffffffffffffffffffffffffffffff166005600083815260200190815260200160002060009054906101000a900473ffffffffffffffffffffffffffffffffffffffff1673ffffffffffffffffffffffffffffffffffffffff16036108bc57808383815181106108a1576108a06119bb565b5b60200260200101818152505081806108b890611bb4565b9250505b80806108c790611bb4565b91505061081a565b508192505050919050565b60056020528060005260406000206000915054906101000a900473ffffffffffffffffffffffffffffffffffffffff1681565b610915610af7565b61091e57600080fd5b80600760006101000a81548173ffffffffffffffffffffffffffffffffffffffff021916908373ffffffffffffffffffffffffffffffffffffffff16021790555050565b61096a610af7565b61097357600080fd5b600073ffffffffffffffffffffffffffffffffffffffff1660008054906101000a900473ffffffffffffffffffffffffffffffffffffffff1673ffffffffffffffffffffffffffffffffffffffff167f8be0079c531659141344cd1fd0a4f28419497f9722a3daafe3b4186f6b6457e060405160405180910390a360008060006101000a81548173ffffffffffffffffffffffffffffffffffffffff021916908373ffffffffffffffffffffffffffffffffffffffff160217905550565b6000600660003373ffffffffffffffffffffffffffffffffffffffff1673ffffffffffffffffffffffffffffffffffffffff1681526020019081526020016000205414610ab3576040517f08c379a0000000000000000000000000000000000000000000000000000000008152600401610aaa90611c6e565b60405180910390fd5b6000610abe82610e4e565b9050610aca8282610e93565b5050565b60008060009054906101000a900473ffffffffffffffffffffffffffffffffffffffff16905090565b60008060009054906101000a900473ffffffffffffffffffffffffffffffffffffffff1673ffffffffffffffffffffffffffffffffffffffff163373ffffffffffffffffffffffffffffffffffffffff1614905090565b6002838160048281548110610b6657610b656119bb565b5b906000526020600020906003020160020160009054906101000a900463ffffffff1663ffffffff161015610b9957600080fd5b846005600082815260200190815260200160002060009054906101000a900473ffffffffffffffffffffffffffffffffffffffff1673ffffffffffffffffffffffffffffffffffffffff163373ffffffffffffffffffffffffffffffffffffffff1614610c0557600080fd5b848460048881548110610c1b57610c1a6119bb565b5b90600052602060002090600302016000019190610c39929190611286565b50505050505050565b610c4a610af7565b610c5357600080fd5b8060088190555050565b610c65610af7565b610c6e57600080fd5b610c778161110a565b50565b6000808284610c899190611c8e565b90508363ffffffff168163ffffffff161015610ca857610ca7611cc8565b5b8091505092915050565b826005600082815260200190815260200160002060009054906101000a900473ffffffffffffffffffffffffffffffffffffffff1673ffffffffffffffffffffffffffffffffffffffff163373ffffffffffffffffffffffffffffffffffffffff1614610d1e57600080fd5b600060048581548110610d3457610d336119bb565b5b90600052602060002090600302019050610d4d81611200565b610d5657600080fd5b60025484610d649190611d26565b935060006002826001015486610d7a9190611d57565b610d849190611dad565b9050604051602001610d9590611e35565b6040516020818303038152906040528051906020012084604051602001610dbc9190611e7b565b6040516020818303038152906040528051906020012003610e07576063606482610de69190611d26565b82610df19190611e92565b610dfb9190611d57565b9050610e0682611227565b5b610e466040518060400160405280600681526020017f4e6f4e616d65000000000000000000000000000000000000000000000000000081525082610e93565b505050505050565b60008082604051602001610e629190611e7b565b6040516020818303038152906040528051906020012060001c905060025481610e8b9190611d26565b915050919050565b60046040518060c00160405280848152602001838152602001600163ffffffff16815260200160035442610ec79190611d57565b63ffffffff168152602001600061ffff168152602001600061ffff1681525090806001815401808255809150506001900390600052602060002090600302016000909190919091506000820151816000019080519060200190610f2b92919061130c565b506020820151816001015560408201518160020160006101000a81548163ffffffff021916908363ffffffff16021790555060608201518160020160046101000a81548163ffffffff021916908363ffffffff16021790555060808201518160020160086101000a81548161ffff021916908361ffff16021790555060a082015181600201600a6101000a81548161ffff021916908361ffff160217905550505060006001600480549050610fe09190611e92565b9050336005600083815260200190815260200160002060006101000a81548173ffffffffffffffffffffffffffffffffffffffff021916908373ffffffffffffffffffffffffffffffffffffffff1602179055506110876001600660003373ffffffffffffffffffffffffffffffffffffffff1673ffffffffffffffffffffffffffffffffffffffff1681526020019081526020016000205461125a90919063ffffffff16565b600660003373ffffffffffffffffffffffffffffffffffffffff1673ffffffffffffffffffffffffffffffffffffffff168152602001908152602001600020819055507f88f026aacbbecc90c18411df4b1185fd8d9be2470f1962f192bf84a27d0704b78184846040516110fd93929190611ec6565b60405180910390a1505050565b600073ffffffffffffffffffffffffffffffffffffffff168173ffffffffffffffffffffffffffffffffffffffff160361114357600080fd5b8073ffffffffffffffffffffffffffffffffffffffff1660008054906101000a900473ffffffffffffffffffffffffffffffffffffffff1673ffffffffffffffffffffffffffffffffffffffff167f8be0079c531659141344cd1fd0a4f28419497f9722a3daafe3b4186f6b6457e060405160405180910390a3806000806101000a81548173ffffffffffffffffffffffffffffffffffffffff021916908373ffffffffffffffffffffffffffffffffffffffff16021790555050565b6000428260020160049054906101000a900463ffffffff1663ffffffff1611159050919050565b600354426112359190611d57565b8160020160046101000a81548163ffffffff021916908363ffffffff16021790555050565b60008082846112699190611d57565b90508381101561127c5761127b611cc8565b5b8091505092915050565b82805461129290611b54565b90600052602060002090601f0160209004810192826112b457600085556112fb565b82601f106112cd57803560ff19168380011785556112fb565b828001600101855582156112fb579182015b828111156112fa5782358255916020019190600101906112df565b5b5090506113089190611392565b5090565b82805461131890611b54565b90600052602060002090601f01602090048101928261133a5760008555611381565b82601f1061135357805160ff1916838001178555611381565b82800160010185558215611381579182015b82811115611380578251825591602001919060010190611365565b5b50905061138e9190611392565b5090565b5b808211156113ab576000816000905550600101611393565b5090565b6000604051905090565b600080fd5b600080fd5b6000819050919050565b6113d6816113c3565b81146113e157600080fd5b50565b6000813590506113f3816113cd565b92915050565b600080604083850312156114105761140f6113b9565b5b600061141e858286016113e4565b925050602061142f858286016113e4565b9150509250929050565b60006020828403121561144f5761144e6113b9565b5b600061145d848285016113e4565b91505092915050565b600081519050919050565b600082825260208201905092915050565b60005b838110156114a0578082015181840152602081019050611485565b838111156114af576000848401525b50505050565b6000601f19601f8301169050919050565b60006114d182611466565b6114db8185611471565b93506114eb818560208601611482565b6114f4816114b5565b840191505092915050565b611508816113c3565b82525050565b600063ffffffff82169050919050565b6115278161150e565b82525050565b600061ffff82169050919050565b6115448161152d565b82525050565b600060c082019050818103600083015261156481896114c6565b905061157360208301886114ff565b611580604083018761151e565b61158d606083018661151e565b61159a608083018561153b565b6115a760a083018461153b565b979650505050505050565b600073ffffffffffffffffffffffffffffffffffffffff82169050919050565b60006115dd826115b2565b9050919050565b6115ed816115d2565b81146115f857600080fd5b50565b60008135905061160a816115e4565b92915050565b600060208284031215611626576116256113b9565b5b6000611634848285016115fb565b91505092915050565b600081519050919050565b600082825260208201905092915050565b6000819050602082019050919050565b611672816113c3565b82525050565b60006116848383611669565b60208301905092915050565b6000602082019050919050565b60006116a88261163d565b6116b28185611648565b93506116bd83611659565b8060005b838110156116ee5781516116d58882611678565b97506116e083611690565b9250506001810190506116c1565b5085935050505092915050565b60006020820190508181036000830152611715818461169d565b905092915050565b611726816115d2565b82525050565b6000602082019050611741600083018461171d565b92915050565b600080fd5b600080fd5b7f4e487b7100000000000000000000000000000000000000000000000000000000600052604160045260246000fd5b611789826114b5565b810181811067ffffffffffffffff821117156117a8576117a7611751565b5b80604052505050565b60006117bb6113af565b90506117c78282611780565b919050565b600067ffffffffffffffff8211156117e7576117e6611751565b5b6117f0826114b5565b9050602081019050919050565b82818337600083830152505050565b600061181f61181a846117cc565b6117b1565b90508281526020810184848401111561183b5761183a61174c565b5b6118468482856117fd565b509392505050565b600082601f83011261186357611862611747565b5b813561187384826020860161180c565b91505092915050565b600060208284031215611892576118916113b9565b5b600082013567ffffffffffffffff8111156118b0576118af6113be565b5b6118bc8482850161184e565b91505092915050565b60008115159050919050565b6118da816118c5565b82525050565b60006020820190506118f560008301846118d1565b92915050565b600080fd5b600080fd5b60008083601f84011261191b5761191a611747565b5b8235905067ffffffffffffffff811115611938576119376118fb565b5b60208301915083600182028301111561195457611953611900565b5b9250929050565b600080600060408486031215611974576119736113b9565b5b6000611982868287016113e4565b935050602084013567ffffffffffffffff8111156119a3576119a26113be565b5b6119af86828701611905565b92509250509250925092565b7f4e487b7100000000000000000000000000000000000000000000000000000000600052603260045260246000fd5b60006020820190506119ff60008301846114ff565b92915050565b611a0e816118c5565b8114611a1957600080fd5b50565b600081519050611a2b81611a05565b92915050565b600081519050611a40816113cd565b92915050565b6000806000806000806000806000806101408b8d031215611a6a57611a696113b9565b5b6000611a788d828e01611a1c565b9a50506020611a898d828e01611a1c565b9950506040611a9a8d828e01611a31565b9850506060611aab8d828e01611a31565b9750506080611abc8d828e01611a31565b96505060a0611acd8d828e01611a31565b95505060c0611ade8d828e01611a31565b94505060e0611aef8d828e01611a31565b935050610100611b018d828e01611a31565b925050610120611b138d828e01611a31565b9150509295989b9194979a5092959850565b7f4e487b7100000000000000000000000000000000000000000000000000000000600052602260045260246000fd5b60006002820490506001821680611b6c57607f821691505b602082108103611b7f57611b7e611b25565b5b50919050565b7f4e487b7100000000000000000000000000000000000000000000000000000000600052601160045260246000fd5b6000611bbf826113c3565b91507fffffffffffffffffffffffffffffffffffffffffffffffffffffffffffffffff8203611bf157611bf0611b85565b5b600182019050919050565b7f4572726f723a20796f75206f6e6c7920686176652061626c6520746f2063726560008201527f6174652031207a6f6d6269652000000000000000000000000000000000000000602082015250565b6000611c58602d83611471565b9150611c6382611bfc565b604082019050919050565b60006020820190508181036000830152611c8781611c4b565b9050919050565b6000611c998261150e565b9150611ca48361150e565b92508263ffffffff03821115611cbd57611cbc611b85565b5b828201905092915050565b7f4e487b7100000000000000000000000000000000000000000000000000000000600052600160045260246000fd5b7f4e487b7100000000000000000000000000000000000000000000000000000000600052601260045260246000fd5b6000611d31826113c3565b9150611d3c836113c3565b925082611d4c57611d4b611cf7565b5b828206905092915050565b6000611d62826113c3565b9150611d6d836113c3565b9250827fffffffffffffffffffffffffffffffffffffffffffffffffffffffffffffffff03821115611da257611da1611b85565b5b828201905092915050565b6000611db8826113c3565b9150611dc3836113c3565b925082611dd357611dd2611cf7565b5b828204905092915050565b600081905092915050565b7f6b69747479000000000000000000000000000000000000000000000000000000600082015250565b6000611e1f600583611dde565b9150611e2a82611de9565b600582019050919050565b6000611e4082611e12565b9150819050919050565b6000611e5582611466565b611e5f8185611dde565b9350611e6f818560208601611482565b80840191505092915050565b6000611e878284611e4a565b915081905092915050565b6000611e9d826113c3565b9150611ea8836113c3565b925082821015611ebb57611eba611b85565b5b828203905092915050565b6000606082019050611edb60008301866114ff565b8181036020830152611eed81856114c6565b9050611efc60408301846114ff565b94935050505056fea264697066735822122042fd1d08618d16d1f3d4d357882a6aa0ea2477da207e03b37ecb0827c1dc74cb64736f6c634300080d0033",
  "immutableReferences": {},
  "source": "// SPDX-License-Identifier: MIT\npragma solidity >= 0.7.0 < 0.9.1;\n\nimport \"./ZombieFeeding.sol\";\n\ncontract ZombieHelper is ZombieFeeding{\n\n    using SafeMath for uint256;\n    using SafeMath32 for uint32;\n    using SafeMath16 for uint16;\n\n    //Define a var with the amount of fee needed to levelUp your zombie\n    uint levelUpFee = 0.001 ether;\n\n//modifiers to control the skills of the zombies accordenly with its level.\nmodifier aboveLevel(uint _level, uint _zombieId){\n    require(zombies[_zombieId].level >= _level);\n    _;\n}\n//function to withdraw the ether from the contract\n    function withdraw() external onlyOwner {\n    address payable _owner =  payable(address (uint160(owner())));\n    // address payable _owner = address(uint160(owner()));\n    _owner.transfer(address(this).balance);\n  }\n\n//funtion to set up the fee to our games \nfunction setLevelUpFee(uint _fee) external onlyOwner{\n    levelUpFee = _fee;\n}\n\n//function that able to player level Up their zombies paying a small fee\nfunction levelUp(uint _zombieId) external payable{\n    require(msg.value == levelUpFee);\n    zombies[_zombieId].level =  zombies[_zombieId].level.add(1);\n}\n\n\n//function that permit to players change de name of its zombie if it's level 2 \nfunction changeName(uint _zombieId, string calldata _newName) external aboveLevel(2, _zombieId) onlyOwnerOf(_zombieId){\n    //require(msg.sender == zombieToOwner[_zombieId]);\n    zombies[_zombieId].name = _newName;\n}\n\n//function to change the DNA to player with level 20\nfunction changeDNA(uint _zombieId, uint  _newDNA) external aboveLevel (20, _zombieId) onlyOwnerOf(_zombieId){\n    //require(msg.sender == zombieToOwner[_zombieId]);\n    zombies[_zombieId].dna = _newDNA;\n}\n//this function is returns all the zombie Armies for a particular address(player)\nfunction getZombiesByOwner(address _owner) external view returns(uint[] memory) {\n uint[] memory result  = new uint[](ownerZombieCount[_owner]);\n// we declare a loop to iterate through all the Zombie in our Dapp compare owner\n uint counter = 0;\n        for(uint i = 0; i < zombies.length; i++){\n            if(zombieToOwner[i] == _owner) {\n                result[counter] = i;\n                counter++;\n            }\n        }\n return result;\n    }\n}",
  "sourcePath": "/Users/amilcar/cryptoZombies/cryptoZombies/contracts/zombieHelper.sol",
  "compiler": {
    "name": "solc",
    "version": "0.8.13+commit.abaa5c0e.Emscripten.clang"
  },
  "schemaVersion": "3.4.10",
  "updatedAt": "2022-10-18T17:08:26.978Z",
  "devdoc": {
    "kind": "dev",
    "methods": {
      "isOwner()": {
        "returns": {
          "_0": "true if `msg.sender` is the owner of the contract."
        }
      },
      "owner()": {
        "returns": {
          "_0": "the address of the owner."
        }
      },
      "renounceOwnership()": {
        "details": "Allows the current owner to relinquish control of the contract."
      },
      "transferOwnership(address)": {
        "details": "Allows the current owner to transfer control of the contract to a newOwner.",
        "params": {
          "newOwner": "The address to transfer ownership to."
        }
      }
    },
    "version": 1
  },
  "userdoc": {
    "kind": "user",
    "methods": {
      "renounceOwnership()": {
        "notice": "Renouncing to ownership will leave the contract without an owner. It will not be possible to call the functions with the `onlyOwner` modifier anymore."
      }
    },
    "version": 1
  }
}