{
  "contractName": "ZombieOwnership",
  "abi": [
    {
      "anonymous": false,
      "inputs": [
        {
          "indexed": true,
          "internalType": "address",
          "name": "_owner",
          "type": "address"
        },
        {
          "indexed": true,
          "internalType": "address",
          "name": "_approved",
          "type": "address"
        },
        {
          "indexed": true,
          "internalType": "uint256",
          "name": "_tokenId",
          "type": "uint256"
        }
      ],
      "name": "Approval",
      "type": "event"
    },
    {
      "anonymous": false,
      "inputs": [
        {
          "indexed": false,
          "internalType": "uint256",
          "name": "zombieId",
          "type": "uint256"
        },
        {
          "indexed": false,
          "internalType": "string",
          "name": "name",
          "type": "string"
        },
        {
          "indexed": false,
          "internalType": "uint256",
          "name": "dna",
          "type": "uint256"
        }
      ],
      "name": "NewZombie",
      "type": "event"
    },
    {
      "anonymous": false,
      "inputs": [
        {
          "indexed": true,
          "internalType": "address",
          "name": "previousOwner",
          "type": "address"
        },
        {
          "indexed": true,
          "internalType": "address",
          "name": "newOwner",
          "type": "address"
        }
      ],
      "name": "OwnershipTransferred",
      "type": "event"
    },
    {
      "anonymous": false,
      "inputs": [
        {
          "indexed": true,
          "internalType": "address",
          "name": "_from",
          "type": "address"
        },
        {
          "indexed": true,
          "internalType": "address",
          "name": "_to",
          "type": "address"
        },
        {
          "indexed": true,
          "internalType": "uint256",
          "name": "_tokenId",
          "type": "uint256"
        }
      ],
      "name": "Transfer",
      "type": "event"
    },
    {
      "inputs": [
        {
          "internalType": "uint256",
          "name": "_zombieId",
          "type": "uint256"
        },
        {
          "internalType": "uint256",
          "name": "_targetId",
          "type": "uint256"
        }
      ],
      "name": "attack",
      "outputs": [],
      "stateMutability": "nonpayable",
      "type": "function"
    },
    {
      "inputs": [
        {
          "internalType": "uint256",
          "name": "_zombieId",
          "type": "uint256"
        },
        {
          "internalType": "uint256",
          "name": "_newDNA",
          "type": "uint256"
        }
      ],
      "name": "changeDNA",
      "outputs": [],
      "stateMutability": "nonpayable",
      "type": "function"
    },
    {
      "inputs": [
        {
          "internalType": "uint256",
          "name": "_zombieId",
          "type": "uint256"
        },
        {
          "internalType": "string",
          "name": "_newName",
          "type": "string"
        }
      ],
      "name": "changeName",
      "outputs": [],
      "stateMutability": "nonpayable",
      "type": "function"
    },
    {
      "inputs": [
        {
          "internalType": "string",
          "name": "_name",
          "type": "string"
        }
      ],
      "name": "createRandomZombie",
      "outputs": [],
      "stateMutability": "nonpayable",
      "type": "function"
    },
    {
      "inputs": [
        {
          "internalType": "uint256",
          "name": "_zombieId",
          "type": "uint256"
        },
        {
          "internalType": "uint256",
          "name": "_kittyId",
          "type": "uint256"
        }
      ],
      "name": "feedOnKitty",
      "outputs": [],
      "stateMutability": "nonpayable",
      "type": "function"
    },
    {
      "inputs": [
        {
          "internalType": "address",
          "name": "_owner",
          "type": "address"
        }
      ],
      "name": "getZombiesByOwner",
      "outputs": [
        {
          "internalType": "uint256[]",
          "name": "",
          "type": "uint256[]"
        }
      ],
      "stateMutability": "view",
      "type": "function"
    },
    {
      "inputs": [],
      "name": "isOwner",
      "outputs": [
        {
          "internalType": "bool",
          "name": "",
          "type": "bool"
        }
      ],
      "stateMutability": "view",
      "type": "function"
    },
    {
      "inputs": [
        {
          "internalType": "uint256",
          "name": "_zombieId",
          "type": "uint256"
        }
      ],
      "name": "levelUp",
      "outputs": [],
      "stateMutability": "payable",
      "type": "function"
    },
    {
      "inputs": [],
      "name": "owner",
      "outputs": [
        {
          "internalType": "address",
          "name": "",
          "type": "address"
        }
      ],
      "stateMutability": "view",
      "type": "function"
    },
    {
      "inputs": [],
      "name": "renounceOwnership",
      "outputs": [],
      "stateMutability": "nonpayable",
      "type": "function"
    },
    {
      "inputs": [
        {
          "internalType": "address",
          "name": "_address",
          "type": "address"
        }
      ],
      "name": "setKittyContractAddress",
      "outputs": [],
      "stateMutability": "nonpayable",
      "type": "function"
    },
    {
      "inputs": [
        {
          "internalType": "uint256",
          "name": "_fee",
          "type": "uint256"
        }
      ],
      "name": "setLevelUpFee",
      "outputs": [],
      "stateMutability": "nonpayable",
      "type": "function"
    },
    {
      "inputs": [
        {
          "internalType": "address",
          "name": "newOwner",
          "type": "address"
        }
      ],
      "name": "transferOwnership",
      "outputs": [],
      "stateMutability": "nonpayable",
      "type": "function"
    },
    {
      "inputs": [],
      "name": "withdraw",
      "outputs": [],
      "stateMutability": "nonpayable",
      "type": "function"
    },
    {
      "inputs": [
        {
          "internalType": "uint256",
          "name": "",
          "type": "uint256"
        }
      ],
      "name": "zombieToOwner",
      "outputs": [
        {
          "internalType": "address",
          "name": "",
          "type": "address"
        }
      ],
      "stateMutability": "view",
      "type": "function"
    },
    {
      "inputs": [
        {
          "internalType": "uint256",
          "name": "",
          "type": "uint256"
        }
      ],
      "name": "zombies",
      "outputs": [
        {
          "internalType": "string",
          "name": "name",
          "type": "string"
        },
        {
          "internalType": "uint256",
          "name": "dna",
          "type": "uint256"
        },
        {
          "internalType": "uint32",
          "name": "level",
          "type": "uint32"
        },
        {
          "internalType": "uint32",
          "name": "readyTime",
          "type": "uint32"
        },
        {
          "internalType": "uint16",
          "name": "winCount",
          "type": "uint16"
        },
        {
          "internalType": "uint16",
          "name": "lossCount",
          "type": "uint16"
        }
      ],
      "stateMutability": "view",
      "type": "function"
    },
    {
      "inputs": [
        {
          "internalType": "address",
          "name": "_owner",
          "type": "address"
        }
      ],
      "name": "balanceOf",
      "outputs": [
        {
          "internalType": "uint256",
          "name": "",
          "type": "uint256"
        }
      ],
      "stateMutability": "view",
      "type": "function"
    },
    {
      "inputs": [
        {
          "internalType": "uint256",
          "name": "_tokenId",
          "type": "uint256"
        }
      ],
      "name": "ownerOf",
      "outputs": [
        {
          "internalType": "address",
          "name": "",
          "type": "address"
        }
      ],
      "stateMutability": "view",
      "type": "function"
    },
    {
      "inputs": [
        {
          "internalType": "address",
          "name": "_from",
          "type": "address"
        },
        {
          "internalType": "address",
          "name": "_to",
          "type": "address"
        },
        {
          "internalType": "uint256",
          "name": "_tokenId",
          "type": "uint256"
        }
      ],
      "name": "transferFrom",
      "outputs": [],
      "stateMutability": "payable",
      "type": "function"
    },
    {
      "inputs": [
        {
          "internalType": "address",
          "name": "_approved",
          "type": "address"
        },
        {
          "internalType": "uint256",
          "name": "_tokenId",
          "type": "uint256"
        }
      ],
      "name": "approve",
      "outputs": [],
      "stateMutability": "payable",
      "type": "function"
    }
  ],
  "bytecode": "0x60806040526010600155600154600a6200001a919062000295565b6002556201518060035566038d7ea4c6800060085560466009556000600a553480156200004657600080fd5b50336000806101000a81548173ffffffffffffffffffffffffffffffffffffffff021916908373ffffffffffffffffffffffffffffffffffffffff16021790555060008054906101000a900473ffffffffffffffffffffffffffffffffffffffff1673ffffffffffffffffffffffffffffffffffffffff16600073ffffffffffffffffffffffffffffffffffffffff167f8be0079c531659141344cd1fd0a4f28419497f9722a3daafe3b4186f6b6457e060405160405180910390a3620002e6565b7f4e487b7100000000000000000000000000000000000000000000000000000000600052601160045260246000fd5b60008160011c9050919050565b6000808291508390505b600185111562000196578086048111156200016e576200016d62000108565b5b60018516156200017e5780820291505b80810290506200018e8562000137565b94506200014e565b94509492505050565b600082620001b1576001905062000284565b81620001c1576000905062000284565b8160018114620001da5760028114620001e5576200021b565b600191505062000284565b60ff841115620001fa57620001f962000108565b5b8360020a91508482111562000214576200021362000108565b5b5062000284565b5060208310610133831016604e8410600b8410161715620002555782820a9050838111156200024f576200024e62000108565b5b62000284565b62000264848484600162000144565b925090508184048111156200027e576200027d62000108565b5b81810290505b9392505050565b6000819050919050565b6000620002a2826200028b565b9150620002af836200028b565b9250620002de7fffffffffffffffffffffffffffffffffffffffffffffffffffffffffffffffff84846200019f565b905092915050565b61297880620002f66000396000f3fe60806040526004361061011f5760003560e01c80636352211e116100a05780638f32d59b116100645780638f32d59b146103ab578063c39cbef1146103d6578063ccf670f8146103ff578063e1fa763814610428578063f2fde38b146104515761011f565b80636352211e146102c657806370a0823114610303578063715018a6146103405780637bff0a01146103575780638da5cb5b146103805761011f565b806323b872dd116100e757806323b872dd146101f05780633ccfd60b1461020c5780634412e10414610223578063528b7b8f146102605780635f4623f11461029d5761011f565b806302daa3ed14610124578063095ea7b31461014d5780630ce90ec21461016957806317a7f4cc146101855780632052465e146101ae575b600080fd5b34801561013057600080fd5b5061014b60048036038101906101469190611cc6565b61047a565b005b61016760048036038101906101629190611d64565b610562565b005b610183600480360381019061017e9190611da4565b610680565b005b34801561019157600080fd5b506101ac60048036038101906101a79190611cc6565b610723565b005b3480156101ba57600080fd5b506101d560048036038101906101d09190611da4565b610841565b6040516101e796959493929190611eb5565b60405180910390f35b61020a60048036038101906102059190611f1d565b610951565b005b34801561021857600080fd5b50610221610a35565b005b34801561022f57600080fd5b5061024a60048036038101906102459190611f70565b610a9c565b604051610257919061205b565b60405180910390f35b34801561026c57600080fd5b5061028760048036038101906102829190611da4565b610bee565b604051610294919061208c565b60405180910390f35b3480156102a957600080fd5b506102c460048036038101906102bf9190611f70565b610c21565b005b3480156102d257600080fd5b506102ed60048036038101906102e89190611da4565b610c76565b6040516102fa919061208c565b60405180910390f35b34801561030f57600080fd5b5061032a60048036038101906103259190611f70565b610cb3565b60405161033791906120a7565b60405180910390f35b34801561034c57600080fd5b50610355610cfc565b005b34801561036357600080fd5b5061037e600480360381019061037991906121f7565b610dcb565b005b34801561038c57600080fd5b50610395610e68565b6040516103a2919061208c565b60405180910390f35b3480156103b757600080fd5b506103c0610e91565b6040516103cd919061225b565b60405180910390f35b3480156103e257600080fd5b506103fd60048036038101906103f891906122d6565b610ee8565b005b34801561040b57600080fd5b5061042660048036038101906104219190611da4565b610fdc565b005b34801561043457600080fd5b5061044f600480360381019061044a9190611cc6565b610ff7565b005b34801561045d57600080fd5b5061047860048036038101906104739190611f70565b611291565b005b601482816004828154811061049257610491612336565b5b906000526020600020906003020160020160009054906101000a900463ffffffff1663ffffffff1610156104c557600080fd5b836005600082815260200190815260200160002060009054906101000a900473ffffffffffffffffffffffffffffffffffffffff1673ffffffffffffffffffffffffffffffffffffffff163373ffffffffffffffffffffffffffffffffffffffff161461053157600080fd5b836004868154811061054657610545612336565b5b9060005260206000209060030201600101819055505050505050565b806005600082815260200190815260200160002060009054906101000a900473ffffffffffffffffffffffffffffffffffffffff1673ffffffffffffffffffffffffffffffffffffffff163373ffffffffffffffffffffffffffffffffffffffff16146105ce57600080fd5b82600b600084815260200190815260200160002060006101000a81548173ffffffffffffffffffffffffffffffffffffffff021916908373ffffffffffffffffffffffffffffffffffffffff160217905550818373ffffffffffffffffffffffffffffffffffffffff163373ffffffffffffffffffffffffffffffffffffffff167f8c5be1e5ebec7d5bd14f71427d1e84f3dd0314c0f7b2291e5b200ac8c7c3b92560405160405180910390a4505050565b600854341461068e57600080fd5b6106dd6001600483815481106106a7576106a6612336565b5b906000526020600020906003020160020160009054906101000a900463ffffffff1663ffffffff166112ae90919063ffffffff16565b600482815481106106f1576106f0612336565b5b906000526020600020906003020160020160006101000a81548163ffffffff021916908363ffffffff16021790555050565b6000600760009054906101000a900473ffffffffffffffffffffffffffffffffffffffff1673ffffffffffffffffffffffffffffffffffffffff1663e98b7f4d836040518263ffffffff1660e01b815260040161078091906120a7565b61014060405180830381865afa15801561079e573d6000803e3d6000fd5b505050506040513d601f19601f820116820180604052508101906107c291906123a6565b9091929394959697985090919293949596975090919293949596509091929394955090919293945090919293509091925090915090508091505061083c83826040518060400160405280600581526020017f6b697474790000000000000000000000000000000000000000000000000000008152506112e6565b505050565b6004818154811061085157600080fd5b9060005260206000209060030201600091509050806000018054610874906124b4565b80601f01602080910402602001604051908101604052809291908181526020018280546108a0906124b4565b80156108ed5780601f106108c2576101008083540402835291602001916108ed565b820191906000526020600020905b8154815290600101906020018083116108d057829003601f168201915b5050505050908060010154908060020160009054906101000a900463ffffffff16908060020160049054906101000a900463ffffffff16908060020160089054906101000a900461ffff169080600201600a9054906101000a900461ffff16905086565b3373ffffffffffffffffffffffffffffffffffffffff166005600083815260200190815260200160002060009054906101000a900473ffffffffffffffffffffffffffffffffffffffff1673ffffffffffffffffffffffffffffffffffffffff161480610a1c57503373ffffffffffffffffffffffffffffffffffffffff16600b600083815260200190815260200160002060009054906101000a900473ffffffffffffffffffffffffffffffffffffffff1673ffffffffffffffffffffffffffffffffffffffff16145b610a2557600080fd5b610a30838383611482565b505050565b610a3d610e91565b610a4657600080fd5b6000610a50610e68565b90508073ffffffffffffffffffffffffffffffffffffffff166108fc479081150290604051600060405180830381858888f19350505050158015610a98573d6000803e3d6000fd5b5050565b60606000600660008473ffffffffffffffffffffffffffffffffffffffff1673ffffffffffffffffffffffffffffffffffffffff1681526020019081526020016000205467ffffffffffffffff811115610af957610af86120cc565b5b604051908082528060200260200182016040528015610b275781602001602082028036833780820191505090505b5090506000805b600480549050811015610be3578473ffffffffffffffffffffffffffffffffffffffff166005600083815260200190815260200160002060009054906101000a900473ffffffffffffffffffffffffffffffffffffffff1673ffffffffffffffffffffffffffffffffffffffff1603610bd05780838381518110610bb557610bb4612336565b5b6020026020010181815250508180610bcc90612514565b9250505b8080610bdb90612514565b915050610b2e565b508192505050919050565b60056020528060005260406000206000915054906101000a900473ffffffffffffffffffffffffffffffffffffffff1681565b610c29610e91565b610c3257600080fd5b80600760006101000a81548173ffffffffffffffffffffffffffffffffffffffff021916908373ffffffffffffffffffffffffffffffffffffffff16021790555050565b60006005600083815260200190815260200160002060009054906101000a900473ffffffffffffffffffffffffffffffffffffffff169050919050565b6000600660008373ffffffffffffffffffffffffffffffffffffffff1673ffffffffffffffffffffffffffffffffffffffff168152602001908152602001600020549050919050565b610d04610e91565b610d0d57600080fd5b600073ffffffffffffffffffffffffffffffffffffffff1660008054906101000a900473ffffffffffffffffffffffffffffffffffffffff1673ffffffffffffffffffffffffffffffffffffffff167f8be0079c531659141344cd1fd0a4f28419497f9722a3daafe3b4186f6b6457e060405160405180910390a360008060006101000a81548173ffffffffffffffffffffffffffffffffffffffff021916908373ffffffffffffffffffffffffffffffffffffffff160217905550565b6000600660003373ffffffffffffffffffffffffffffffffffffffff1673ffffffffffffffffffffffffffffffffffffffff1681526020019081526020016000205414610e4d576040517f08c379a0000000000000000000000000000000000000000000000000000000008152600401610e44906125ce565b60405180910390fd5b6000610e5882611660565b9050610e6482826116a5565b5050565b60008060009054906101000a900473ffffffffffffffffffffffffffffffffffffffff16905090565b60008060009054906101000a900473ffffffffffffffffffffffffffffffffffffffff1673ffffffffffffffffffffffffffffffffffffffff163373ffffffffffffffffffffffffffffffffffffffff1614905090565b6002838160048281548110610f0057610eff612336565b5b906000526020600020906003020160020160009054906101000a900463ffffffff1663ffffffff161015610f3357600080fd5b846005600082815260200190815260200160002060009054906101000a900473ffffffffffffffffffffffffffffffffffffffff1673ffffffffffffffffffffffffffffffffffffffff163373ffffffffffffffffffffffffffffffffffffffff1614610f9f57600080fd5b848460048881548110610fb557610fb4612336565b5b90600052602060002090600302016000019190610fd3929190611b53565b50505050505050565b610fe4610e91565b610fed57600080fd5b8060088190555050565b816005600082815260200190815260200160002060009054906101000a900473ffffffffffffffffffffffffffffffffffffffff1673ffffffffffffffffffffffffffffffffffffffff163373ffffffffffffffffffffffffffffffffffffffff161461106357600080fd5b60006004848154811061107957611078612336565b5b9060005260206000209060030201905060006004848154811061109f5761109e612336565b5b9060005260206000209060030201905060006110bb606461191c565b905060095481116111ef576110f060018460020160089054906101000a900461ffff1661ffff1661197c90919063ffffffff16565b8360020160086101000a81548161ffff021916908361ffff16021790555061113c60018460020160009054906101000a900463ffffffff1663ffffffff166112ae90919063ffffffff16565b8360020160006101000a81548163ffffffff021916908363ffffffff160217905550611188600183600201600a9054906101000a900461ffff1661ffff1661197c90919063ffffffff16565b82600201600a6101000a81548161ffff021916908361ffff1602179055506111ea8683600101546040518060400160405280600681526020017f7a6f6d62696500000000000000000000000000000000000000000000000000008152506112e6565b611289565b611219600184600201600a9054906101000a900461ffff1661ffff1661197c90919063ffffffff16565b83600201600a6101000a81548161ffff021916908361ffff16021790555061126160018360020160089054906101000a900461ffff1661ffff1661197c90919063ffffffff16565b8260020160086101000a81548161ffff021916908361ffff160217905550611288836119b0565b5b505050505050565b611299610e91565b6112a257600080fd5b6112ab816119e3565b50565b60008082846112bd91906125ee565b90508363ffffffff168163ffffffff1610156112dc576112db612628565b5b8091505092915050565b826005600082815260200190815260200160002060009054906101000a900473ffffffffffffffffffffffffffffffffffffffff1673ffffffffffffffffffffffffffffffffffffffff163373ffffffffffffffffffffffffffffffffffffffff161461135257600080fd5b60006004858154811061136857611367612336565b5b9060005260206000209060030201905061138181611ad9565b61138a57600080fd5b600254846113989190612686565b9350600060028260010154866113ae91906126b7565b6113b8919061270d565b90506040516020016113c990612795565b60405160208183030381529060405280519060200120846040516020016113f091906127db565b604051602081830303815290604052805190602001200361143b57606360648261141a9190612686565b8261142591906127f2565b61142f91906126b7565b905061143a826119b0565b5b61147a6040518060400160405280600681526020017f4e6f4e616d650000000000000000000000000000000000000000000000000000815250826116a5565b505050505050565b6114d56001600660008573ffffffffffffffffffffffffffffffffffffffff1673ffffffffffffffffffffffffffffffffffffffff16815260200190815260200160002054611b0090919063ffffffff16565b600660008473ffffffffffffffffffffffffffffffffffffffff1673ffffffffffffffffffffffffffffffffffffffff1681526020019081526020016000208190555061156b6001600660008673ffffffffffffffffffffffffffffffffffffffff1673ffffffffffffffffffffffffffffffffffffffff16815260200190815260200160002054611b2c90919063ffffffff16565b600660008573ffffffffffffffffffffffffffffffffffffffff1673ffffffffffffffffffffffffffffffffffffffff16815260200190815260200160002081905550816005600083815260200190815260200160002060006101000a81548173ffffffffffffffffffffffffffffffffffffffff021916908373ffffffffffffffffffffffffffffffffffffffff160217905550808273ffffffffffffffffffffffffffffffffffffffff168473ffffffffffffffffffffffffffffffffffffffff167fddf252ad1be2c89b69c2b068fc378daa952ba7f163c4a11628f55a4df523b3ef60405160405180910390a4505050565b6000808260405160200161167491906127db565b6040516020818303038152906040528051906020012060001c90506002548161169d9190612686565b915050919050565b60046040518060c00160405280848152602001838152602001600163ffffffff168152602001600354426116d991906126b7565b63ffffffff168152602001600061ffff168152602001600061ffff168152509080600181540180825580915050600190039060005260206000209060030201600090919091909150600082015181600001908051906020019061173d929190611bd9565b506020820151816001015560408201518160020160006101000a81548163ffffffff021916908363ffffffff16021790555060608201518160020160046101000a81548163ffffffff021916908363ffffffff16021790555060808201518160020160086101000a81548161ffff021916908361ffff16021790555060a082015181600201600a6101000a81548161ffff021916908361ffff1602179055505050600060016004805490506117f291906127f2565b9050336005600083815260200190815260200160002060006101000a81548173ffffffffffffffffffffffffffffffffffffffff021916908373ffffffffffffffffffffffffffffffffffffffff1602179055506118996001600660003373ffffffffffffffffffffffffffffffffffffffff1673ffffffffffffffffffffffffffffffffffffffff16815260200190815260200160002054611b0090919063ffffffff16565b600660003373ffffffffffffffffffffffffffffffffffffffff1673ffffffffffffffffffffffffffffffffffffffff168152602001908152602001600020819055507f88f026aacbbecc90c18411df4b1185fd8d9be2470f1962f192bf84a27d0704b781848460405161190f93929190612826565b60405180910390a1505050565b60006119346001600a54611b0090919063ffffffff16565b600a81905550814233600a54604051602001611952939291906128cd565b6040516020818303038152906040528051906020012060001c6119759190612686565b9050919050565b600080828461198b919061290a565b90508361ffff168161ffff1610156119a6576119a5612628565b5b8091505092915050565b600354426119be91906126b7565b8160020160046101000a81548163ffffffff021916908363ffffffff16021790555050565b600073ffffffffffffffffffffffffffffffffffffffff168173ffffffffffffffffffffffffffffffffffffffff1603611a1c57600080fd5b8073ffffffffffffffffffffffffffffffffffffffff1660008054906101000a900473ffffffffffffffffffffffffffffffffffffffff1673ffffffffffffffffffffffffffffffffffffffff167f8be0079c531659141344cd1fd0a4f28419497f9722a3daafe3b4186f6b6457e060405160405180910390a3806000806101000a81548173ffffffffffffffffffffffffffffffffffffffff021916908373ffffffffffffffffffffffffffffffffffffffff16021790555050565b6000428260020160049054906101000a900463ffffffff1663ffffffff1611159050919050565b6000808284611b0f91906126b7565b905083811015611b2257611b21612628565b5b8091505092915050565b600082821115611b3f57611b3e612628565b5b8183611b4b91906127f2565b905092915050565b828054611b5f906124b4565b90600052602060002090601f016020900481019282611b815760008555611bc8565b82601f10611b9a57803560ff1916838001178555611bc8565b82800160010185558215611bc8579182015b82811115611bc7578235825591602001919060010190611bac565b5b509050611bd59190611c5f565b5090565b828054611be5906124b4565b90600052602060002090601f016020900481019282611c075760008555611c4e565b82601f10611c2057805160ff1916838001178555611c4e565b82800160010185558215611c4e579182015b82811115611c4d578251825591602001919060010190611c32565b5b509050611c5b9190611c5f565b5090565b5b80821115611c78576000816000905550600101611c60565b5090565b6000604051905090565b600080fd5b600080fd5b6000819050919050565b611ca381611c90565b8114611cae57600080fd5b50565b600081359050611cc081611c9a565b92915050565b60008060408385031215611cdd57611cdc611c86565b5b6000611ceb85828601611cb1565b9250506020611cfc85828601611cb1565b9150509250929050565b600073ffffffffffffffffffffffffffffffffffffffff82169050919050565b6000611d3182611d06565b9050919050565b611d4181611d26565b8114611d4c57600080fd5b50565b600081359050611d5e81611d38565b92915050565b60008060408385031215611d7b57611d7a611c86565b5b6000611d8985828601611d4f565b9250506020611d9a85828601611cb1565b9150509250929050565b600060208284031215611dba57611db9611c86565b5b6000611dc884828501611cb1565b91505092915050565b600081519050919050565b600082825260208201905092915050565b60005b83811015611e0b578082015181840152602081019050611df0565b83811115611e1a576000848401525b50505050565b6000601f19601f8301169050919050565b6000611e3c82611dd1565b611e468185611ddc565b9350611e56818560208601611ded565b611e5f81611e20565b840191505092915050565b611e7381611c90565b82525050565b600063ffffffff82169050919050565b611e9281611e79565b82525050565b600061ffff82169050919050565b611eaf81611e98565b82525050565b600060c0820190508181036000830152611ecf8189611e31565b9050611ede6020830188611e6a565b611eeb6040830187611e89565b611ef86060830186611e89565b611f056080830185611ea6565b611f1260a0830184611ea6565b979650505050505050565b600080600060608486031215611f3657611f35611c86565b5b6000611f4486828701611d4f565b9350506020611f5586828701611d4f565b9250506040611f6686828701611cb1565b9150509250925092565b600060208284031215611f8657611f85611c86565b5b6000611f9484828501611d4f565b91505092915050565b600081519050919050565b600082825260208201905092915050565b6000819050602082019050919050565b611fd281611c90565b82525050565b6000611fe48383611fc9565b60208301905092915050565b6000602082019050919050565b600061200882611f9d565b6120128185611fa8565b935061201d83611fb9565b8060005b8381101561204e5781516120358882611fd8565b975061204083611ff0565b925050600181019050612021565b5085935050505092915050565b600060208201905081810360008301526120758184611ffd565b905092915050565b61208681611d26565b82525050565b60006020820190506120a1600083018461207d565b92915050565b60006020820190506120bc6000830184611e6a565b92915050565b600080fd5b600080fd5b7f4e487b7100000000000000000000000000000000000000000000000000000000600052604160045260246000fd5b61210482611e20565b810181811067ffffffffffffffff82111715612123576121226120cc565b5b80604052505050565b6000612136611c7c565b905061214282826120fb565b919050565b600067ffffffffffffffff821115612162576121616120cc565b5b61216b82611e20565b9050602081019050919050565b82818337600083830152505050565b600061219a61219584612147565b61212c565b9050828152602081018484840111156121b6576121b56120c7565b5b6121c1848285612178565b509392505050565b600082601f8301126121de576121dd6120c2565b5b81356121ee848260208601612187565b91505092915050565b60006020828403121561220d5761220c611c86565b5b600082013567ffffffffffffffff81111561222b5761222a611c8b565b5b612237848285016121c9565b91505092915050565b60008115159050919050565b61225581612240565b82525050565b6000602082019050612270600083018461224c565b92915050565b600080fd5b600080fd5b60008083601f840112612296576122956120c2565b5b8235905067ffffffffffffffff8111156122b3576122b2612276565b5b6020830191508360018202830111156122cf576122ce61227b565b5b9250929050565b6000806000604084860312156122ef576122ee611c86565b5b60006122fd86828701611cb1565b935050602084013567ffffffffffffffff81111561231e5761231d611c8b565b5b61232a86828701612280565b92509250509250925092565b7f4e487b7100000000000000000000000000000000000000000000000000000000600052603260045260246000fd5b61236e81612240565b811461237957600080fd5b50565b60008151905061238b81612365565b92915050565b6000815190506123a081611c9a565b92915050565b6000806000806000806000806000806101408b8d0312156123ca576123c9611c86565b5b60006123d88d828e0161237c565b9a505060206123e98d828e0161237c565b99505060406123fa8d828e01612391565b985050606061240b8d828e01612391565b975050608061241c8d828e01612391565b96505060a061242d8d828e01612391565b95505060c061243e8d828e01612391565b94505060e061244f8d828e01612391565b9350506101006124618d828e01612391565b9250506101206124738d828e01612391565b9150509295989b9194979a5092959850565b7f4e487b7100000000000000000000000000000000000000000000000000000000600052602260045260246000fd5b600060028204905060018216806124cc57607f821691505b6020821081036124df576124de612485565b5b50919050565b7f4e487b7100000000000000000000000000000000000000000000000000000000600052601160045260246000fd5b600061251f82611c90565b91507fffffffffffffffffffffffffffffffffffffffffffffffffffffffffffffffff8203612551576125506124e5565b5b600182019050919050565b7f4572726f723a20796f75206f6e6c7920686176652061626c6520746f2063726560008201527f6174652031207a6f6d6269652000000000000000000000000000000000000000602082015250565b60006125b8602d83611ddc565b91506125c38261255c565b604082019050919050565b600060208201905081810360008301526125e7816125ab565b9050919050565b60006125f982611e79565b915061260483611e79565b92508263ffffffff0382111561261d5761261c6124e5565b5b828201905092915050565b7f4e487b7100000000000000000000000000000000000000000000000000000000600052600160045260246000fd5b7f4e487b7100000000000000000000000000000000000000000000000000000000600052601260045260246000fd5b600061269182611c90565b915061269c83611c90565b9250826126ac576126ab612657565b5b828206905092915050565b60006126c282611c90565b91506126cd83611c90565b9250827fffffffffffffffffffffffffffffffffffffffffffffffffffffffffffffffff03821115612702576127016124e5565b5b828201905092915050565b600061271882611c90565b915061272383611c90565b92508261273357612732612657565b5b828204905092915050565b600081905092915050565b7f6b69747479000000000000000000000000000000000000000000000000000000600082015250565b600061277f60058361273e565b915061278a82612749565b600582019050919050565b60006127a082612772565b9150819050919050565b60006127b582611dd1565b6127bf818561273e565b93506127cf818560208601611ded565b80840191505092915050565b60006127e782846127aa565b915081905092915050565b60006127fd82611c90565b915061280883611c90565b92508282101561281b5761281a6124e5565b5b828203905092915050565b600060608201905061283b6000830186611e6a565b818103602083015261284d8185611e31565b905061285c6040830184611e6a565b949350505050565b6000819050919050565b61287f61287a82611c90565b612864565b82525050565b60008160601b9050919050565b600061289d82612885565b9050919050565b60006128af82612892565b9050919050565b6128c76128c282611d26565b6128a4565b82525050565b60006128d9828661286e565b6020820191506128e982856128b6565b6014820191506128f9828461286e565b602082019150819050949350505050565b600061291582611e98565b915061292083611e98565b92508261ffff03821115612937576129366124e5565b5b82820190509291505056fea2646970667358221220d07fa1593f9f9074ce6d47ff90b3907ecc7cb2f50884f1044378761f49f7cd5964736f6c634300080d0033",
  "immutableReferences": {},
  "source": "// SPDX-License-Identifier: MIT\npragma solidity >= 0.7.0 < 0.9.1;\n\nimport \"./zombieAttack.sol\";\nimport \"./erc721.sol\";\n\n/// @title A contract to manages de ownershio of assest \n/// @author Amilcar Rosario\n/// @notice \n/// @dev a compliance with OpenZeppelin's imlementation of the ERC721 spec\n\n//this contract inherits from to contracts \ncontract ZombieOwnership is ZombieAttack, ERC721 {\n    using SafeMath for uint256;\n\n    //define mapping to lookup quickly if the address is approve.\n    mapping(uint => address) zombieApprovals;\n\n//return the number of zombies that _owner has\nfunction  balanceOf(address _owner) external override view returns (uint256) {\n   return ownerZombieCount[_owner];\n\n\n  }\nfunction  ownerOf(uint256 _tokenId) external override view returns (address) {\n    return zombieToOwner[_tokenId];\n\n  }\n\n  //function transfer this's in charge of tranfer the assesst \n  function  _transfer(address _from, address _to, uint _tokenId) private  {\n    //sum one zombie to the target address using the mapping \n    ownerZombieCount[_to]= ownerZombieCount[_to].add(1);\n    //discount one zombie to the origen address using the mapping \n    ownerZombieCount[_from] = ownerZombieCount[_from].sub(1);\n    //assign the new zombie to the target address\n    zombieToOwner[_tokenId] = _to;\n    emit Transfer(_from, _to, _tokenId);\n\n  }\n\nfunction  transferFrom(address _from, address _to, uint256 _tokenId) external override payable {\n    //here we valide that the address have approve to trade the assesst\n    require(zombieToOwner[_tokenId] == msg.sender || zombieApprovals[_tokenId] == msg.sender);\n    _transfer(_from, _to, _tokenId);\n\n  }\n\nfunction approve(address _approved, uint256 _tokenId) external override payable  onlyOwnerOf(_tokenId) {\n\n    zombieApprovals[_tokenId] = _approved;\n    emit Approval(msg.sender, _approved, _tokenId);\n  }\n}\n",
  "sourcePath": "/Users/amilcar/cryptoZombies/cryptoZombiesRepo/cryptoZombie/contracts/zombieOwnerShip.sol",
  "compiler": {
    "name": "solc",
    "version": "0.8.13+commit.abaa5c0e.Emscripten.clang"
  },
  "schemaVersion": "3.4.10",
  "updatedAt": "2022-10-19T22:40:58.089Z",
  "devdoc": {
    "author": "Amilcar Rosario",
    "details": "a compliance with OpenZeppelin's imlementation of the ERC721 spec",
    "kind": "dev",
    "methods": {
      "isOwner()": {
        "returns": {
          "_0": "true if `msg.sender` is the owner of the contract."
        }
      },
      "owner()": {
        "returns": {
          "_0": "the address of the owner."
        }
      },
      "renounceOwnership()": {
        "details": "Allows the current owner to relinquish control of the contract."
      },
      "transferOwnership(address)": {
        "details": "Allows the current owner to transfer control of the contract to a newOwner.",
        "params": {
          "newOwner": "The address to transfer ownership to."
        }
      }
    },
    "title": "A contract to manages de ownershio of assest ",
    "version": 1
  },
  "userdoc": {
    "kind": "user",
    "methods": {
      "renounceOwnership()": {
        "notice": "Renouncing to ownership will leave the contract without an owner. It will not be possible to call the functions with the `onlyOwner` modifier anymore."
      }
    },
    "version": 1
  }
}