{
  "contractName": "ZombieOwnership",
  "abi": [
    {
      "anonymous": false,
      "inputs": [
        {
          "indexed": true,
          "internalType": "address",
          "name": "_owner",
          "type": "address"
        },
        {
          "indexed": true,
          "internalType": "address",
          "name": "_approved",
          "type": "address"
        },
        {
          "indexed": true,
          "internalType": "uint256",
          "name": "_tokenId",
          "type": "uint256"
        }
      ],
      "name": "Approval",
      "type": "event"
    },
    {
      "anonymous": false,
      "inputs": [
        {
          "indexed": false,
          "internalType": "uint256",
          "name": "zombieId",
          "type": "uint256"
        },
        {
          "indexed": false,
          "internalType": "string",
          "name": "name",
          "type": "string"
        },
        {
          "indexed": false,
          "internalType": "uint256",
          "name": "dna",
          "type": "uint256"
        }
      ],
      "name": "NewZombie",
      "type": "event"
    },
    {
      "anonymous": false,
      "inputs": [
        {
          "indexed": true,
          "internalType": "address",
          "name": "previousOwner",
          "type": "address"
        },
        {
          "indexed": true,
          "internalType": "address",
          "name": "newOwner",
          "type": "address"
        }
      ],
      "name": "OwnershipTransferred",
      "type": "event"
    },
    {
      "anonymous": false,
      "inputs": [
        {
          "indexed": true,
          "internalType": "address",
          "name": "_from",
          "type": "address"
        },
        {
          "indexed": true,
          "internalType": "address",
          "name": "_to",
          "type": "address"
        },
        {
          "indexed": true,
          "internalType": "uint256",
          "name": "_tokenId",
          "type": "uint256"
        }
      ],
      "name": "Transfer",
      "type": "event"
    },
    {
      "inputs": [
        {
          "internalType": "uint256",
          "name": "_zombieId",
          "type": "uint256"
        },
        {
          "internalType": "uint256",
          "name": "_targetId",
          "type": "uint256"
        }
      ],
      "name": "attack",
      "outputs": [],
      "stateMutability": "nonpayable",
      "type": "function"
    },
    {
      "inputs": [
        {
          "internalType": "uint256",
          "name": "_zombieId",
          "type": "uint256"
        },
        {
          "internalType": "uint256",
          "name": "_newDNA",
          "type": "uint256"
        }
      ],
      "name": "changeDNA",
      "outputs": [],
      "stateMutability": "nonpayable",
      "type": "function"
    },
    {
      "inputs": [
        {
          "internalType": "uint256",
          "name": "_zombieId",
          "type": "uint256"
        },
        {
          "internalType": "string",
          "name": "_newName",
          "type": "string"
        }
      ],
      "name": "changeName",
      "outputs": [],
      "stateMutability": "nonpayable",
      "type": "function"
    },
    {
      "inputs": [
        {
          "internalType": "string",
          "name": "_name",
          "type": "string"
        }
      ],
      "name": "createRandomZombie",
      "outputs": [],
      "stateMutability": "nonpayable",
      "type": "function"
    },
    {
      "inputs": [
        {
          "internalType": "uint256",
          "name": "_zombieId",
          "type": "uint256"
        },
        {
          "internalType": "uint256",
          "name": "_kittyId",
          "type": "uint256"
        }
      ],
      "name": "feedOnKitty",
      "outputs": [],
      "stateMutability": "nonpayable",
      "type": "function"
    },
    {
      "inputs": [
        {
          "internalType": "address",
          "name": "_owner",
          "type": "address"
        }
      ],
      "name": "getZombiesByOwner",
      "outputs": [
        {
          "internalType": "uint256[]",
          "name": "",
          "type": "uint256[]"
        }
      ],
      "stateMutability": "view",
      "type": "function"
    },
    {
      "inputs": [],
      "name": "isOwner",
      "outputs": [
        {
          "internalType": "bool",
          "name": "",
          "type": "bool"
        }
      ],
      "stateMutability": "view",
      "type": "function"
    },
    {
      "inputs": [
        {
          "internalType": "uint256",
          "name": "_zombieId",
          "type": "uint256"
        }
      ],
      "name": "levelUp",
      "outputs": [],
      "stateMutability": "payable",
      "type": "function"
    },
    {
      "inputs": [],
      "name": "owner",
      "outputs": [
        {
          "internalType": "address",
          "name": "",
          "type": "address"
        }
      ],
      "stateMutability": "view",
      "type": "function"
    },
    {
      "inputs": [],
      "name": "renounceOwnership",
      "outputs": [],
      "stateMutability": "nonpayable",
      "type": "function"
    },
    {
      "inputs": [
        {
          "internalType": "address",
          "name": "_address",
          "type": "address"
        }
      ],
      "name": "setKittyContractAddress",
      "outputs": [],
      "stateMutability": "nonpayable",
      "type": "function"
    },
    {
      "inputs": [
        {
          "internalType": "uint256",
          "name": "_fee",
          "type": "uint256"
        }
      ],
      "name": "setLevelUpFee",
      "outputs": [],
      "stateMutability": "nonpayable",
      "type": "function"
    },
    {
      "inputs": [
        {
          "internalType": "address",
          "name": "newOwner",
          "type": "address"
        }
      ],
      "name": "transferOwnership",
      "outputs": [],
      "stateMutability": "nonpayable",
      "type": "function"
    },
    {
      "inputs": [],
      "name": "withdraw",
      "outputs": [],
      "stateMutability": "nonpayable",
      "type": "function"
    },
    {
      "inputs": [
        {
          "internalType": "uint256",
          "name": "",
          "type": "uint256"
        }
      ],
      "name": "zombieToOwner",
      "outputs": [
        {
          "internalType": "address",
          "name": "",
          "type": "address"
        }
      ],
      "stateMutability": "view",
      "type": "function"
    },
    {
      "inputs": [
        {
          "internalType": "uint256",
          "name": "",
          "type": "uint256"
        }
      ],
      "name": "zombies",
      "outputs": [
        {
          "internalType": "string",
          "name": "name",
          "type": "string"
        },
        {
          "internalType": "uint256",
          "name": "dna",
          "type": "uint256"
        },
        {
          "internalType": "uint32",
          "name": "level",
          "type": "uint32"
        },
        {
          "internalType": "uint32",
          "name": "readyTime",
          "type": "uint32"
        },
        {
          "internalType": "uint16",
          "name": "winCount",
          "type": "uint16"
        },
        {
          "internalType": "uint16",
          "name": "lossCount",
          "type": "uint16"
        }
      ],
      "stateMutability": "view",
      "type": "function"
    },
    {
      "inputs": [
        {
          "internalType": "address",
          "name": "_owner",
          "type": "address"
        }
      ],
      "name": "balanceOf",
      "outputs": [
        {
          "internalType": "uint256",
          "name": "",
          "type": "uint256"
        }
      ],
      "stateMutability": "view",
      "type": "function"
    },
    {
      "inputs": [
        {
          "internalType": "uint256",
          "name": "_tokenId",
          "type": "uint256"
        }
      ],
      "name": "ownerOf",
      "outputs": [
        {
          "internalType": "address",
          "name": "",
          "type": "address"
        }
      ],
      "stateMutability": "view",
      "type": "function"
    },
    {
      "inputs": [
        {
          "internalType": "address",
          "name": "_from",
          "type": "address"
        },
        {
          "internalType": "address",
          "name": "_to",
          "type": "address"
        },
        {
          "internalType": "uint256",
          "name": "_tokenId",
          "type": "uint256"
        }
      ],
      "name": "transferFrom",
      "outputs": [],
      "stateMutability": "payable",
      "type": "function"
    },
    {
      "inputs": [
        {
          "internalType": "address",
          "name": "_approved",
          "type": "address"
        },
        {
          "internalType": "uint256",
          "name": "_tokenId",
          "type": "uint256"
        }
      ],
      "name": "approve",
      "outputs": [],
      "stateMutability": "payable",
      "type": "function"
    }
  ],
  "bytecode": "0x60806040526010600155600154600a6200001a919062000295565b6002556201518060035566038d7ea4c6800060085560466009556000600a553480156200004657600080fd5b50336000806101000a81548173ffffffffffffffffffffffffffffffffffffffff021916908373ffffffffffffffffffffffffffffffffffffffff16021790555060008054906101000a900473ffffffffffffffffffffffffffffffffffffffff1673ffffffffffffffffffffffffffffffffffffffff16600073ffffffffffffffffffffffffffffffffffffffff167f8be0079c531659141344cd1fd0a4f28419497f9722a3daafe3b4186f6b6457e060405160405180910390a3620002e6565b7f4e487b7100000000000000000000000000000000000000000000000000000000600052601160045260246000fd5b60008160011c9050919050565b6000808291508390505b600185111562000196578086048111156200016e576200016d62000108565b5b60018516156200017e5780820291505b80810290506200018e8562000137565b94506200014e565b94509492505050565b600082620001b1576001905062000284565b81620001c1576000905062000284565b8160018114620001da5760028114620001e5576200021b565b600191505062000284565b60ff841115620001fa57620001f962000108565b5b8360020a91508482111562000214576200021362000108565b5b5062000284565b5060208310610133831016604e8410600b8410161715620002555782820a9050838111156200024f576200024e62000108565b5b62000284565b62000264848484600162000144565b925090508184048111156200027e576200027d62000108565b5b81810290505b9392505050565b6000819050919050565b6000620002a2826200028b565b9150620002af836200028b565b9250620002de7fffffffffffffffffffffffffffffffffffffffffffffffffffffffffffffffff84846200019f565b905092915050565b61276980620002f66000396000f3fe60806040526004361061011f5760003560e01c80636352211e116100a05780638f32d59b116100645780638f32d59b146103ab578063c39cbef1146103d6578063ccf670f8146103ff578063e1fa763814610428578063f2fde38b146104515761011f565b80636352211e146102c657806370a0823114610303578063715018a6146103405780637bff0a01146103575780638da5cb5b146103805761011f565b806323b872dd116100e757806323b872dd146101f05780633ccfd60b1461020c5780634412e10414610223578063528b7b8f146102605780635f4623f11461029d5761011f565b806302daa3ed14610124578063095ea7b31461014d5780630ce90ec21461016957806317a7f4cc146101855780632052465e146101ae575b600080fd5b34801561013057600080fd5b5061014b60048036038101906101469190611ad9565b61047a565b005b61016760048036038101906101629190611b77565b610562565b005b610183600480360381019061017e9190611bb7565b610680565b005b34801561019157600080fd5b506101ac60048036038101906101a79190611ad9565b6106f5565b005b3480156101ba57600080fd5b506101d560048036038101906101d09190611bb7565b610813565b6040516101e796959493929190611cc8565b60405180910390f35b61020a60048036038101906102059190611d30565b610923565b005b34801561021857600080fd5b50610221610a07565b005b34801561022f57600080fd5b5061024a60048036038101906102459190611d83565b610a6e565b6040516102579190611e6e565b60405180910390f35b34801561026c57600080fd5b5061028760048036038101906102829190611bb7565b610bc0565b6040516102949190611e9f565b60405180910390f35b3480156102a957600080fd5b506102c460048036038101906102bf9190611d83565b610bf3565b005b3480156102d257600080fd5b506102ed60048036038101906102e89190611bb7565b610c48565b6040516102fa9190611e9f565b60405180910390f35b34801561030f57600080fd5b5061032a60048036038101906103259190611d83565b610c85565b6040516103379190611eba565b60405180910390f35b34801561034c57600080fd5b50610355610cce565b005b34801561036357600080fd5b5061037e6004803603810190610379919061200a565b610d9d565b005b34801561038c57600080fd5b50610395610e3a565b6040516103a29190611e9f565b60405180910390f35b3480156103b757600080fd5b506103c0610e63565b6040516103cd919061206e565b60405180910390f35b3480156103e257600080fd5b506103fd60048036038101906103f891906120e9565b610eba565b005b34801561040b57600080fd5b5061042660048036038101906104219190611bb7565b610fae565b005b34801561043457600080fd5b5061044f600480360381019061044a9190611ad9565b610fc9565b005b34801561045d57600080fd5b5061047860048036038101906104739190611d83565b61122a565b005b601482816004828154811061049257610491612149565b5b906000526020600020906003020160020160009054906101000a900463ffffffff1663ffffffff1610156104c557600080fd5b836005600082815260200190815260200160002060009054906101000a900473ffffffffffffffffffffffffffffffffffffffff1673ffffffffffffffffffffffffffffffffffffffff163373ffffffffffffffffffffffffffffffffffffffff161461053157600080fd5b836004868154811061054657610545612149565b5b9060005260206000209060030201600101819055505050505050565b806005600082815260200190815260200160002060009054906101000a900473ffffffffffffffffffffffffffffffffffffffff1673ffffffffffffffffffffffffffffffffffffffff163373ffffffffffffffffffffffffffffffffffffffff16146105ce57600080fd5b82600b600084815260200190815260200160002060006101000a81548173ffffffffffffffffffffffffffffffffffffffff021916908373ffffffffffffffffffffffffffffffffffffffff160217905550818373ffffffffffffffffffffffffffffffffffffffff163373ffffffffffffffffffffffffffffffffffffffff167f8c5be1e5ebec7d5bd14f71427d1e84f3dd0314c0f7b2291e5b200ac8c7c3b92560405160405180910390a4505050565b600854341461068e57600080fd5b600481815481106106a2576106a1612149565b5b9060005260206000209060030201600201600081819054906101000a900463ffffffff16809291906106d3906121a7565b91906101000a81548163ffffffff021916908363ffffffff1602179055505050565b6000600760009054906101000a900473ffffffffffffffffffffffffffffffffffffffff1673ffffffffffffffffffffffffffffffffffffffff1663e98b7f4d836040518263ffffffff1660e01b81526004016107529190611eba565b61014060405180830381865afa158015610770573d6000803e3d6000fd5b505050506040513d601f19601f820116820180604052508101906107949190612214565b9091929394959697985090919293949596975090919293949596509091929394955090919293945090919293509091925090915090508091505061080e83826040518060400160405280600581526020017f6b69747479000000000000000000000000000000000000000000000000000000815250611247565b505050565b6004818154811061082357600080fd5b906000526020600020906003020160009150905080600001805461084690612322565b80601f016020809104026020016040519081016040528092919081815260200182805461087290612322565b80156108bf5780601f10610894576101008083540402835291602001916108bf565b820191906000526020600020905b8154815290600101906020018083116108a257829003601f168201915b5050505050908060010154908060020160009054906101000a900463ffffffff16908060020160049054906101000a900463ffffffff16908060020160089054906101000a900461ffff169080600201600a9054906101000a900461ffff16905086565b3373ffffffffffffffffffffffffffffffffffffffff166005600083815260200190815260200160002060009054906101000a900473ffffffffffffffffffffffffffffffffffffffff1673ffffffffffffffffffffffffffffffffffffffff1614806109ee57503373ffffffffffffffffffffffffffffffffffffffff16600b600083815260200190815260200160002060009054906101000a900473ffffffffffffffffffffffffffffffffffffffff1673ffffffffffffffffffffffffffffffffffffffff16145b6109f757600080fd5b610a028383836113e3565b505050565b610a0f610e63565b610a1857600080fd5b6000610a22610e3a565b90508073ffffffffffffffffffffffffffffffffffffffff166108fc479081150290604051600060405180830381858888f19350505050158015610a6a573d6000803e3d6000fd5b5050565b60606000600660008473ffffffffffffffffffffffffffffffffffffffff1673ffffffffffffffffffffffffffffffffffffffff1681526020019081526020016000205467ffffffffffffffff811115610acb57610aca611edf565b5b604051908082528060200260200182016040528015610af95781602001602082028036833780820191505090505b5090506000805b600480549050811015610bb5578473ffffffffffffffffffffffffffffffffffffffff166005600083815260200190815260200160002060009054906101000a900473ffffffffffffffffffffffffffffffffffffffff1673ffffffffffffffffffffffffffffffffffffffff1603610ba25780838381518110610b8757610b86612149565b5b6020026020010181815250508180610b9e90612353565b9250505b8080610bad90612353565b915050610b00565b508192505050919050565b60056020528060005260406000206000915054906101000a900473ffffffffffffffffffffffffffffffffffffffff1681565b610bfb610e63565b610c0457600080fd5b80600760006101000a81548173ffffffffffffffffffffffffffffffffffffffff021916908373ffffffffffffffffffffffffffffffffffffffff16021790555050565b60006005600083815260200190815260200160002060009054906101000a900473ffffffffffffffffffffffffffffffffffffffff169050919050565b6000600660008373ffffffffffffffffffffffffffffffffffffffff1673ffffffffffffffffffffffffffffffffffffffff168152602001908152602001600020549050919050565b610cd6610e63565b610cdf57600080fd5b600073ffffffffffffffffffffffffffffffffffffffff1660008054906101000a900473ffffffffffffffffffffffffffffffffffffffff1673ffffffffffffffffffffffffffffffffffffffff167f8be0079c531659141344cd1fd0a4f28419497f9722a3daafe3b4186f6b6457e060405160405180910390a360008060006101000a81548173ffffffffffffffffffffffffffffffffffffffff021916908373ffffffffffffffffffffffffffffffffffffffff160217905550565b6000600660003373ffffffffffffffffffffffffffffffffffffffff1673ffffffffffffffffffffffffffffffffffffffff1681526020019081526020016000205414610e1f576040517f08c379a0000000000000000000000000000000000000000000000000000000008152600401610e169061240d565b60405180910390fd5b6000610e2a8261153f565b9050610e368282611584565b5050565b60008060009054906101000a900473ffffffffffffffffffffffffffffffffffffffff16905090565b60008060009054906101000a900473ffffffffffffffffffffffffffffffffffffffff1673ffffffffffffffffffffffffffffffffffffffff163373ffffffffffffffffffffffffffffffffffffffff1614905090565b6002838160048281548110610ed257610ed1612149565b5b906000526020600020906003020160020160009054906101000a900463ffffffff1663ffffffff161015610f0557600080fd5b846005600082815260200190815260200160002060009054906101000a900473ffffffffffffffffffffffffffffffffffffffff1673ffffffffffffffffffffffffffffffffffffffff163373ffffffffffffffffffffffffffffffffffffffff1614610f7157600080fd5b848460048881548110610f8757610f86612149565b5b90600052602060002090600302016000019190610fa5929190611966565b50505050505050565b610fb6610e63565b610fbf57600080fd5b8060088190555050565b816005600082815260200190815260200160002060009054906101000a900473ffffffffffffffffffffffffffffffffffffffff1673ffffffffffffffffffffffffffffffffffffffff163373ffffffffffffffffffffffffffffffffffffffff161461103557600080fd5b60006004848154811061104b5761104a612149565b5b9060005260206000209060030201905060006004848154811061107157611070612149565b5b90600052602060002090600302019050600061108d60646117ba565b9050600954811161119e5782600201600881819054906101000a900461ffff16809291906110ba9061242d565b91906101000a81548161ffff021916908361ffff1602179055505082600201600081819054906101000a900463ffffffff16809291906110f9906121a7565b91906101000a81548163ffffffff021916908363ffffffff1602179055505081600201600a81819054906101000a900461ffff168092919061113a9061242d565b91906101000a81548161ffff021916908361ffff160217905550506111998683600101546040518060400160405280600681526020017f7a6f6d6269650000000000000000000000000000000000000000000000000000815250611247565b611222565b82600201600a81819054906101000a900461ffff16809291906111c09061242d565b91906101000a81548161ffff021916908361ffff1602179055505081600201600881819054906101000a900461ffff16809291906111fd9061242d565b91906101000a81548161ffff021916908361ffff1602179055505061122183611816565b5b505050505050565b611232610e63565b61123b57600080fd5b61124481611849565b50565b826005600082815260200190815260200160002060009054906101000a900473ffffffffffffffffffffffffffffffffffffffff1673ffffffffffffffffffffffffffffffffffffffff163373ffffffffffffffffffffffffffffffffffffffff16146112b357600080fd5b6000600485815481106112c9576112c8612149565b5b906000526020600020906003020190506112e28161193f565b6112eb57600080fd5b600254846112f99190612486565b93506000600282600101548661130f91906124b7565b611319919061250d565b905060405160200161132a90612595565b604051602081830303815290604052805190602001208460405160200161135191906125db565b604051602081830303815290604052805190602001200361139c57606360648261137b9190612486565b8261138691906125f2565b61139091906124b7565b905061139b82611816565b5b6113db6040518060400160405280600681526020017f4e6f4e616d65000000000000000000000000000000000000000000000000000081525082611584565b505050505050565b600660008373ffffffffffffffffffffffffffffffffffffffff1673ffffffffffffffffffffffffffffffffffffffff168152602001908152602001600020600081548092919061143390612353565b9190505550600660008473ffffffffffffffffffffffffffffffffffffffff1673ffffffffffffffffffffffffffffffffffffffff168152602001908152602001600020600081548092919061148890612626565b9190505550816005600083815260200190815260200160002060006101000a81548173ffffffffffffffffffffffffffffffffffffffff021916908373ffffffffffffffffffffffffffffffffffffffff160217905550808273ffffffffffffffffffffffffffffffffffffffff168473ffffffffffffffffffffffffffffffffffffffff167fddf252ad1be2c89b69c2b068fc378daa952ba7f163c4a11628f55a4df523b3ef60405160405180910390a4505050565b6000808260405160200161155391906125db565b6040516020818303038152906040528051906020012060001c90506002548161157c9190612486565b915050919050565b60046040518060c00160405280848152602001838152602001600163ffffffff168152602001600354426115b891906124b7565b63ffffffff168152602001600061ffff168152602001600061ffff168152509080600181540180825580915050600190039060005260206000209060030201600090919091909150600082015181600001908051906020019061161c9291906119ec565b506020820151816001015560408201518160020160006101000a81548163ffffffff021916908363ffffffff16021790555060608201518160020160046101000a81548163ffffffff021916908363ffffffff16021790555060808201518160020160086101000a81548161ffff021916908361ffff16021790555060a082015181600201600a6101000a81548161ffff021916908361ffff1602179055505050600060016004805490506116d191906125f2565b9050336005600083815260200190815260200160002060006101000a81548173ffffffffffffffffffffffffffffffffffffffff021916908373ffffffffffffffffffffffffffffffffffffffff160217905550600660003373ffffffffffffffffffffffffffffffffffffffff1673ffffffffffffffffffffffffffffffffffffffff168152602001908152602001600020600081548092919061177590612353565b91905055507f88f026aacbbecc90c18411df4b1185fd8d9be2470f1962f192bf84a27d0704b78184846040516117ad9392919061264f565b60405180910390a1505050565b6000600a60008154809291906117cf90612353565b9190505550814233600a546040516020016117ec939291906126f6565b6040516020818303038152906040528051906020012060001c61180f9190612486565b9050919050565b6003544261182491906124b7565b8160020160046101000a81548163ffffffff021916908363ffffffff16021790555050565b600073ffffffffffffffffffffffffffffffffffffffff168173ffffffffffffffffffffffffffffffffffffffff160361188257600080fd5b8073ffffffffffffffffffffffffffffffffffffffff1660008054906101000a900473ffffffffffffffffffffffffffffffffffffffff1673ffffffffffffffffffffffffffffffffffffffff167f8be0079c531659141344cd1fd0a4f28419497f9722a3daafe3b4186f6b6457e060405160405180910390a3806000806101000a81548173ffffffffffffffffffffffffffffffffffffffff021916908373ffffffffffffffffffffffffffffffffffffffff16021790555050565b6000428260020160049054906101000a900463ffffffff1663ffffffff1611159050919050565b82805461197290612322565b90600052602060002090601f01602090048101928261199457600085556119db565b82601f106119ad57803560ff19168380011785556119db565b828001600101855582156119db579182015b828111156119da5782358255916020019190600101906119bf565b5b5090506119e89190611a72565b5090565b8280546119f890612322565b90600052602060002090601f016020900481019282611a1a5760008555611a61565b82601f10611a3357805160ff1916838001178555611a61565b82800160010185558215611a61579182015b82811115611a60578251825591602001919060010190611a45565b5b509050611a6e9190611a72565b5090565b5b80821115611a8b576000816000905550600101611a73565b5090565b6000604051905090565b600080fd5b600080fd5b6000819050919050565b611ab681611aa3565b8114611ac157600080fd5b50565b600081359050611ad381611aad565b92915050565b60008060408385031215611af057611aef611a99565b5b6000611afe85828601611ac4565b9250506020611b0f85828601611ac4565b9150509250929050565b600073ffffffffffffffffffffffffffffffffffffffff82169050919050565b6000611b4482611b19565b9050919050565b611b5481611b39565b8114611b5f57600080fd5b50565b600081359050611b7181611b4b565b92915050565b60008060408385031215611b8e57611b8d611a99565b5b6000611b9c85828601611b62565b9250506020611bad85828601611ac4565b9150509250929050565b600060208284031215611bcd57611bcc611a99565b5b6000611bdb84828501611ac4565b91505092915050565b600081519050919050565b600082825260208201905092915050565b60005b83811015611c1e578082015181840152602081019050611c03565b83811115611c2d576000848401525b50505050565b6000601f19601f8301169050919050565b6000611c4f82611be4565b611c598185611bef565b9350611c69818560208601611c00565b611c7281611c33565b840191505092915050565b611c8681611aa3565b82525050565b600063ffffffff82169050919050565b611ca581611c8c565b82525050565b600061ffff82169050919050565b611cc281611cab565b82525050565b600060c0820190508181036000830152611ce28189611c44565b9050611cf16020830188611c7d565b611cfe6040830187611c9c565b611d0b6060830186611c9c565b611d186080830185611cb9565b611d2560a0830184611cb9565b979650505050505050565b600080600060608486031215611d4957611d48611a99565b5b6000611d5786828701611b62565b9350506020611d6886828701611b62565b9250506040611d7986828701611ac4565b9150509250925092565b600060208284031215611d9957611d98611a99565b5b6000611da784828501611b62565b91505092915050565b600081519050919050565b600082825260208201905092915050565b6000819050602082019050919050565b611de581611aa3565b82525050565b6000611df78383611ddc565b60208301905092915050565b6000602082019050919050565b6000611e1b82611db0565b611e258185611dbb565b9350611e3083611dcc565b8060005b83811015611e61578151611e488882611deb565b9750611e5383611e03565b925050600181019050611e34565b5085935050505092915050565b60006020820190508181036000830152611e888184611e10565b905092915050565b611e9981611b39565b82525050565b6000602082019050611eb46000830184611e90565b92915050565b6000602082019050611ecf6000830184611c7d565b92915050565b600080fd5b600080fd5b7f4e487b7100000000000000000000000000000000000000000000000000000000600052604160045260246000fd5b611f1782611c33565b810181811067ffffffffffffffff82111715611f3657611f35611edf565b5b80604052505050565b6000611f49611a8f565b9050611f558282611f0e565b919050565b600067ffffffffffffffff821115611f7557611f74611edf565b5b611f7e82611c33565b9050602081019050919050565b82818337600083830152505050565b6000611fad611fa884611f5a565b611f3f565b905082815260208101848484011115611fc957611fc8611eda565b5b611fd4848285611f8b565b509392505050565b600082601f830112611ff157611ff0611ed5565b5b8135612001848260208601611f9a565b91505092915050565b6000602082840312156120205761201f611a99565b5b600082013567ffffffffffffffff81111561203e5761203d611a9e565b5b61204a84828501611fdc565b91505092915050565b60008115159050919050565b61206881612053565b82525050565b6000602082019050612083600083018461205f565b92915050565b600080fd5b600080fd5b60008083601f8401126120a9576120a8611ed5565b5b8235905067ffffffffffffffff8111156120c6576120c5612089565b5b6020830191508360018202830111156120e2576120e161208e565b5b9250929050565b60008060006040848603121561210257612101611a99565b5b600061211086828701611ac4565b935050602084013567ffffffffffffffff81111561213157612130611a9e565b5b61213d86828701612093565b92509250509250925092565b7f4e487b7100000000000000000000000000000000000000000000000000000000600052603260045260246000fd5b7f4e487b7100000000000000000000000000000000000000000000000000000000600052601160045260246000fd5b60006121b282611c8c565b915063ffffffff82036121c8576121c7612178565b5b600182019050919050565b6121dc81612053565b81146121e757600080fd5b50565b6000815190506121f9816121d3565b92915050565b60008151905061220e81611aad565b92915050565b6000806000806000806000806000806101408b8d03121561223857612237611a99565b5b60006122468d828e016121ea565b9a505060206122578d828e016121ea565b99505060406122688d828e016121ff565b98505060606122798d828e016121ff565b975050608061228a8d828e016121ff565b96505060a061229b8d828e016121ff565b95505060c06122ac8d828e016121ff565b94505060e06122bd8d828e016121ff565b9350506101006122cf8d828e016121ff565b9250506101206122e18d828e016121ff565b9150509295989b9194979a5092959850565b7f4e487b7100000000000000000000000000000000000000000000000000000000600052602260045260246000fd5b6000600282049050600182168061233a57607f821691505b60208210810361234d5761234c6122f3565b5b50919050565b600061235e82611aa3565b91507fffffffffffffffffffffffffffffffffffffffffffffffffffffffffffffffff82036123905761238f612178565b5b600182019050919050565b7f4572726f723a20796f75206f6e6c7920686176652061626c6520746f2063726560008201527f6174652031207a6f6d6269652000000000000000000000000000000000000000602082015250565b60006123f7602d83611bef565b91506124028261239b565b604082019050919050565b60006020820190508181036000830152612426816123ea565b9050919050565b600061243882611cab565b915061ffff820361244c5761244b612178565b5b600182019050919050565b7f4e487b7100000000000000000000000000000000000000000000000000000000600052601260045260246000fd5b600061249182611aa3565b915061249c83611aa3565b9250826124ac576124ab612457565b5b828206905092915050565b60006124c282611aa3565b91506124cd83611aa3565b9250827fffffffffffffffffffffffffffffffffffffffffffffffffffffffffffffffff0382111561250257612501612178565b5b828201905092915050565b600061251882611aa3565b915061252383611aa3565b92508261253357612532612457565b5b828204905092915050565b600081905092915050565b7f6b69747479000000000000000000000000000000000000000000000000000000600082015250565b600061257f60058361253e565b915061258a82612549565b600582019050919050565b60006125a082612572565b9150819050919050565b60006125b582611be4565b6125bf818561253e565b93506125cf818560208601611c00565b80840191505092915050565b60006125e782846125aa565b915081905092915050565b60006125fd82611aa3565b915061260883611aa3565b92508282101561261b5761261a612178565b5b828203905092915050565b600061263182611aa3565b91506000820361264457612643612178565b5b600182039050919050565b60006060820190506126646000830186611c7d565b81810360208301526126768185611c44565b90506126856040830184611c7d565b949350505050565b6000819050919050565b6126a86126a382611aa3565b61268d565b82525050565b60008160601b9050919050565b60006126c6826126ae565b9050919050565b60006126d8826126bb565b9050919050565b6126f06126eb82611b39565b6126cd565b82525050565b60006127028286612697565b60208201915061271282856126df565b6014820191506127228284612697565b60208201915081905094935050505056fea264697066735822122080c4e06681c7072af5d46f86683ae32a8bd8d56dad77543ab58b6503bb0cf16a64736f6c634300080d0033",
  "immutableReferences": {},
  "source": "// SPDX-License-Identifier: MIT\npragma solidity >= 0.7.0 < 0.9.1;\n\nimport \"./zombieAttack.sol\";\nimport \"./erc721.sol\";\n\n//this contract inherits from to contracts \ncontract ZombieOwnership is ZombieAttack, ERC721 {\n\n    //define mapping to lookup quickly if the address is approve.\n    mapping(uint => address) zombieApprovals;\n\n//return the number of zombies that _owner has\nfunction  balanceOf(address _owner) external override view returns (uint256) {\n   return ownerZombieCount[_owner];\n\n\n  }\nfunction  ownerOf(uint256 _tokenId) external override view returns (address) {\n    return zombieToOwner[_tokenId];\n\n  }\n\n  //function transfer this's in charge of tranfer the assesst \n  function  _transfer(address _from, address _to, uint _tokenId) private  {\n    //sum one zombie to the target address using the mapping \n    ownerZombieCount[_to]++;\n    //discount one zombie to the origen address using the mapping \n    ownerZombieCount[_from]--;\n    //assign the new zombie to the target address\n    zombieToOwner[_tokenId] = _to;\n    emit Transfer(_from, _to, _tokenId);\n\n  }\n\nfunction  transferFrom(address _from, address _to, uint256 _tokenId) external override payable {\n    //here we valide that the address have approve to trade the assesst\n    require(zombieToOwner[_tokenId] == msg.sender || zombieApprovals[_tokenId] == msg.sender);\n    _transfer(_from, _to, _tokenId);\n\n  }\n\nfunction approve(address _approved, uint256 _tokenId) external override payable  onlyOwnerOf(_tokenId) {\n\n    zombieApprovals[_tokenId] = _approved;\n    emit Approval(msg.sender, _approved, _tokenId);\n  }\n}\n",
  "sourcePath": "/Users/amilcar/cryptoZombies/cryptoZombies/contracts/zombieOwnerShip.sol",
  "compiler": {
    "name": "solc",
    "version": "0.8.13+commit.abaa5c0e.Emscripten.clang"
  },
  "schemaVersion": "3.4.10",
  "updatedAt": "2022-10-18T15:52:44.610Z",
  "devdoc": {
    "kind": "dev",
    "methods": {
      "isOwner()": {
        "returns": {
          "_0": "true if `msg.sender` is the owner of the contract."
        }
      },
      "owner()": {
        "returns": {
          "_0": "the address of the owner."
        }
      },
      "renounceOwnership()": {
        "details": "Allows the current owner to relinquish control of the contract."
      },
      "transferOwnership(address)": {
        "details": "Allows the current owner to transfer control of the contract to a newOwner.",
        "params": {
          "newOwner": "The address to transfer ownership to."
        }
      }
    },
    "version": 1
  },
  "userdoc": {
    "kind": "user",
    "methods": {
      "renounceOwnership()": {
        "notice": "Renouncing to ownership will leave the contract without an owner. It will not be possible to call the functions with the `onlyOwner` modifier anymore."
      }
    },
    "version": 1
  }
}