{
  "contractName": "ZombieAttack",
  "abi": [
    {
      "anonymous": false,
      "inputs": [
        {
          "indexed": false,
          "internalType": "uint256",
          "name": "zombieId",
          "type": "uint256"
        },
        {
          "indexed": false,
          "internalType": "string",
          "name": "name",
          "type": "string"
        },
        {
          "indexed": false,
          "internalType": "uint256",
          "name": "dna",
          "type": "uint256"
        }
      ],
      "name": "NewZombie",
      "type": "event"
    },
    {
      "anonymous": false,
      "inputs": [
        {
          "indexed": true,
          "internalType": "address",
          "name": "previousOwner",
          "type": "address"
        },
        {
          "indexed": true,
          "internalType": "address",
          "name": "newOwner",
          "type": "address"
        }
      ],
      "name": "OwnershipTransferred",
      "type": "event"
    },
    {
      "inputs": [
        {
          "internalType": "uint256",
          "name": "_zombieId",
          "type": "uint256"
        },
        {
          "internalType": "uint256",
          "name": "_newDNA",
          "type": "uint256"
        }
      ],
      "name": "changeDNA",
      "outputs": [],
      "stateMutability": "nonpayable",
      "type": "function"
    },
    {
      "inputs": [
        {
          "internalType": "uint256",
          "name": "_zombieId",
          "type": "uint256"
        },
        {
          "internalType": "string",
          "name": "_newName",
          "type": "string"
        }
      ],
      "name": "changeName",
      "outputs": [],
      "stateMutability": "nonpayable",
      "type": "function"
    },
    {
      "inputs": [
        {
          "internalType": "string",
          "name": "_name",
          "type": "string"
        }
      ],
      "name": "createRandomZombie",
      "outputs": [],
      "stateMutability": "nonpayable",
      "type": "function"
    },
    {
      "inputs": [
        {
          "internalType": "uint256",
          "name": "_zombieId",
          "type": "uint256"
        },
        {
          "internalType": "uint256",
          "name": "_kittyId",
          "type": "uint256"
        }
      ],
      "name": "feedOnKitty",
      "outputs": [],
      "stateMutability": "nonpayable",
      "type": "function"
    },
    {
      "inputs": [
        {
          "internalType": "address",
          "name": "_owner",
          "type": "address"
        }
      ],
      "name": "getZombiesByOwner",
      "outputs": [
        {
          "internalType": "uint256[]",
          "name": "",
          "type": "uint256[]"
        }
      ],
      "stateMutability": "view",
      "type": "function"
    },
    {
      "inputs": [],
      "name": "isOwner",
      "outputs": [
        {
          "internalType": "bool",
          "name": "",
          "type": "bool"
        }
      ],
      "stateMutability": "view",
      "type": "function"
    },
    {
      "inputs": [
        {
          "internalType": "uint256",
          "name": "_zombieId",
          "type": "uint256"
        }
      ],
      "name": "levelUp",
      "outputs": [],
      "stateMutability": "payable",
      "type": "function"
    },
    {
      "inputs": [],
      "name": "owner",
      "outputs": [
        {
          "internalType": "address",
          "name": "",
          "type": "address"
        }
      ],
      "stateMutability": "view",
      "type": "function"
    },
    {
      "inputs": [],
      "name": "renounceOwnership",
      "outputs": [],
      "stateMutability": "nonpayable",
      "type": "function"
    },
    {
      "inputs": [
        {
          "internalType": "address",
          "name": "_address",
          "type": "address"
        }
      ],
      "name": "setKittyContractAddress",
      "outputs": [],
      "stateMutability": "nonpayable",
      "type": "function"
    },
    {
      "inputs": [
        {
          "internalType": "uint256",
          "name": "_fee",
          "type": "uint256"
        }
      ],
      "name": "setLevelUpFee",
      "outputs": [],
      "stateMutability": "nonpayable",
      "type": "function"
    },
    {
      "inputs": [
        {
          "internalType": "address",
          "name": "newOwner",
          "type": "address"
        }
      ],
      "name": "transferOwnership",
      "outputs": [],
      "stateMutability": "nonpayable",
      "type": "function"
    },
    {
      "inputs": [],
      "name": "withdraw",
      "outputs": [],
      "stateMutability": "nonpayable",
      "type": "function"
    },
    {
      "inputs": [
        {
          "internalType": "uint256",
          "name": "",
          "type": "uint256"
        }
      ],
      "name": "zombieToOwner",
      "outputs": [
        {
          "internalType": "address",
          "name": "",
          "type": "address"
        }
      ],
      "stateMutability": "view",
      "type": "function"
    },
    {
      "inputs": [
        {
          "internalType": "uint256",
          "name": "",
          "type": "uint256"
        }
      ],
      "name": "zombies",
      "outputs": [
        {
          "internalType": "string",
          "name": "name",
          "type": "string"
        },
        {
          "internalType": "uint256",
          "name": "dna",
          "type": "uint256"
        },
        {
          "internalType": "uint32",
          "name": "level",
          "type": "uint32"
        },
        {
          "internalType": "uint32",
          "name": "readyTime",
          "type": "uint32"
        },
        {
          "internalType": "uint16",
          "name": "winCount",
          "type": "uint16"
        },
        {
          "internalType": "uint16",
          "name": "lossCount",
          "type": "uint16"
        }
      ],
      "stateMutability": "view",
      "type": "function"
    },
    {
      "inputs": [
        {
          "internalType": "uint256",
          "name": "_zombieId",
          "type": "uint256"
        },
        {
          "internalType": "uint256",
          "name": "_targetId",
          "type": "uint256"
        }
      ],
      "name": "attack",
      "outputs": [],
      "stateMutability": "nonpayable",
      "type": "function"
    }
  ],
  "bytecode": "0x60806040526010600155600154600a6200001a919062000295565b6002556201518060035566038d7ea4c6800060085560466009556000600a553480156200004657600080fd5b50336000806101000a81548173ffffffffffffffffffffffffffffffffffffffff021916908373ffffffffffffffffffffffffffffffffffffffff16021790555060008054906101000a900473ffffffffffffffffffffffffffffffffffffffff1673ffffffffffffffffffffffffffffffffffffffff16600073ffffffffffffffffffffffffffffffffffffffff167f8be0079c531659141344cd1fd0a4f28419497f9722a3daafe3b4186f6b6457e060405160405180910390a3620002e6565b7f4e487b7100000000000000000000000000000000000000000000000000000000600052601160045260246000fd5b60008160011c9050919050565b6000808291508390505b600185111562000196578086048111156200016e576200016d62000108565b5b60018516156200017e5780820291505b80810290506200018e8562000137565b94506200014e565b94509492505050565b600082620001b1576001905062000284565b81620001c1576000905062000284565b8160018114620001da5760028114620001e5576200021b565b600191505062000284565b60ff841115620001fa57620001f962000108565b5b8360020a91508482111562000214576200021362000108565b5b5062000284565b5060208310610133831016604e8410600b8410161715620002555782820a9050838111156200024f576200024e62000108565b5b62000284565b62000264848484600162000144565b925090508184048111156200027e576200027d62000108565b5b81810290505b9392505050565b6000819050919050565b6000620002a2826200028b565b9150620002af836200028b565b9250620002de7fffffffffffffffffffffffffffffffffffffffffffffffffffffffffffffffff84846200019f565b905092915050565b61237a80620002f66000396000f3fe6080604052600436106100f35760003560e01c8063715018a61161008a578063c39cbef111610059578063c39cbef1146102f8578063ccf670f814610321578063e1fa76381461034a578063f2fde38b14610373576100f3565b8063715018a6146102625780637bff0a01146102795780638da5cb5b146102a25780638f32d59b146102cd576100f3565b80633ccfd60b116100c65780633ccfd60b146101a85780634412e104146101bf578063528b7b8f146101fc5780635f4623f114610239576100f3565b806302daa3ed146100f85780630ce90ec21461012157806317a7f4cc1461013d5780632052465e14610166575b600080fd5b34801561010457600080fd5b5061011f600480360381019061011a919061175b565b61039c565b005b61013b6004803603810190610136919061179b565b610484565b005b34801561014957600080fd5b50610164600480360381019061015f919061175b565b610527565b005b34801561017257600080fd5b5061018d6004803603810190610188919061179b565b610645565b60405161019f969594939291906118ac565b60405180910390f35b3480156101b457600080fd5b506101bd610755565b005b3480156101cb57600080fd5b506101e660048036038101906101e19190611972565b6107bc565b6040516101f39190611a5d565b60405180910390f35b34801561020857600080fd5b50610223600480360381019061021e919061179b565b61090e565b6040516102309190611a8e565b60405180910390f35b34801561024557600080fd5b50610260600480360381019061025b9190611972565b610941565b005b34801561026e57600080fd5b50610277610996565b005b34801561028557600080fd5b506102a0600480360381019061029b9190611bde565b610a65565b005b3480156102ae57600080fd5b506102b7610b02565b6040516102c49190611a8e565b60405180910390f35b3480156102d957600080fd5b506102e2610b2b565b6040516102ef9190611c42565b60405180910390f35b34801561030457600080fd5b5061031f600480360381019061031a9190611cbd565b610b82565b005b34801561032d57600080fd5b506103486004803603810190610343919061179b565b610c76565b005b34801561035657600080fd5b50610371600480360381019061036c919061175b565b610c91565b005b34801561037f57600080fd5b5061039a60048036038101906103959190611972565b610f2b565b005b60148281600482815481106103b4576103b3611d1d565b5b906000526020600020906003020160020160009054906101000a900463ffffffff1663ffffffff1610156103e757600080fd5b836005600082815260200190815260200160002060009054906101000a900473ffffffffffffffffffffffffffffffffffffffff1673ffffffffffffffffffffffffffffffffffffffff163373ffffffffffffffffffffffffffffffffffffffff161461045357600080fd5b836004868154811061046857610467611d1d565b5b9060005260206000209060030201600101819055505050505050565b600854341461049257600080fd5b6104e16001600483815481106104ab576104aa611d1d565b5b906000526020600020906003020160020160009054906101000a900463ffffffff1663ffffffff16610f4890919063ffffffff16565b600482815481106104f5576104f4611d1d565b5b906000526020600020906003020160020160006101000a81548163ffffffff021916908363ffffffff16021790555050565b6000600760009054906101000a900473ffffffffffffffffffffffffffffffffffffffff1673ffffffffffffffffffffffffffffffffffffffff1663e98b7f4d836040518263ffffffff1660e01b81526004016105849190611d4c565b61014060405180830381865afa1580156105a2573d6000803e3d6000fd5b505050506040513d601f19601f820116820180604052508101906105c69190611da8565b9091929394959697985090919293949596975090919293949596509091929394955090919293945090919293509091925090915090508091505061064083826040518060400160405280600581526020017f6b69747479000000000000000000000000000000000000000000000000000000815250610f80565b505050565b6004818154811061065557600080fd5b906000526020600020906003020160009150905080600001805461067890611eb6565b80601f01602080910402602001604051908101604052809291908181526020018280546106a490611eb6565b80156106f15780601f106106c6576101008083540402835291602001916106f1565b820191906000526020600020905b8154815290600101906020018083116106d457829003601f168201915b5050505050908060010154908060020160009054906101000a900463ffffffff16908060020160049054906101000a900463ffffffff16908060020160089054906101000a900461ffff169080600201600a9054906101000a900461ffff16905086565b61075d610b2b565b61076657600080fd5b6000610770610b02565b90508073ffffffffffffffffffffffffffffffffffffffff166108fc479081150290604051600060405180830381858888f193505050501580156107b8573d6000803e3d6000fd5b5050565b60606000600660008473ffffffffffffffffffffffffffffffffffffffff1673ffffffffffffffffffffffffffffffffffffffff1681526020019081526020016000205467ffffffffffffffff81111561081957610818611ab3565b5b6040519080825280602002602001820160405280156108475781602001602082028036833780820191505090505b5090506000805b600480549050811015610903578473ffffffffffffffffffffffffffffffffffffffff166005600083815260200190815260200160002060009054906101000a900473ffffffffffffffffffffffffffffffffffffffff1673ffffffffffffffffffffffffffffffffffffffff16036108f057808383815181106108d5576108d4611d1d565b5b60200260200101818152505081806108ec90611f16565b9250505b80806108fb90611f16565b91505061084e565b508192505050919050565b60056020528060005260406000206000915054906101000a900473ffffffffffffffffffffffffffffffffffffffff1681565b610949610b2b565b61095257600080fd5b80600760006101000a81548173ffffffffffffffffffffffffffffffffffffffff021916908373ffffffffffffffffffffffffffffffffffffffff16021790555050565b61099e610b2b565b6109a757600080fd5b600073ffffffffffffffffffffffffffffffffffffffff1660008054906101000a900473ffffffffffffffffffffffffffffffffffffffff1673ffffffffffffffffffffffffffffffffffffffff167f8be0079c531659141344cd1fd0a4f28419497f9722a3daafe3b4186f6b6457e060405160405180910390a360008060006101000a81548173ffffffffffffffffffffffffffffffffffffffff021916908373ffffffffffffffffffffffffffffffffffffffff160217905550565b6000600660003373ffffffffffffffffffffffffffffffffffffffff1673ffffffffffffffffffffffffffffffffffffffff1681526020019081526020016000205414610ae7576040517f08c379a0000000000000000000000000000000000000000000000000000000008152600401610ade90611fd0565b60405180910390fd5b6000610af28261111c565b9050610afe8282611161565b5050565b60008060009054906101000a900473ffffffffffffffffffffffffffffffffffffffff16905090565b60008060009054906101000a900473ffffffffffffffffffffffffffffffffffffffff1673ffffffffffffffffffffffffffffffffffffffff163373ffffffffffffffffffffffffffffffffffffffff1614905090565b6002838160048281548110610b9a57610b99611d1d565b5b906000526020600020906003020160020160009054906101000a900463ffffffff1663ffffffff161015610bcd57600080fd5b846005600082815260200190815260200160002060009054906101000a900473ffffffffffffffffffffffffffffffffffffffff1673ffffffffffffffffffffffffffffffffffffffff163373ffffffffffffffffffffffffffffffffffffffff1614610c3957600080fd5b848460048881548110610c4f57610c4e611d1d565b5b90600052602060002090600302016000019190610c6d9291906115e8565b50505050505050565b610c7e610b2b565b610c8757600080fd5b8060088190555050565b816005600082815260200190815260200160002060009054906101000a900473ffffffffffffffffffffffffffffffffffffffff1673ffffffffffffffffffffffffffffffffffffffff163373ffffffffffffffffffffffffffffffffffffffff1614610cfd57600080fd5b600060048481548110610d1357610d12611d1d565b5b90600052602060002090600302019050600060048481548110610d3957610d38611d1d565b5b906000526020600020906003020190506000610d5560646113d8565b90506009548111610e8957610d8a60018460020160089054906101000a900461ffff1661ffff1661143890919063ffffffff16565b8360020160086101000a81548161ffff021916908361ffff160217905550610dd660018460020160009054906101000a900463ffffffff1663ffffffff16610f4890919063ffffffff16565b8360020160006101000a81548163ffffffff021916908363ffffffff160217905550610e22600183600201600a9054906101000a900461ffff1661ffff1661143890919063ffffffff16565b82600201600a6101000a81548161ffff021916908361ffff160217905550610e848683600101546040518060400160405280600681526020017f7a6f6d6269650000000000000000000000000000000000000000000000000000815250610f80565b610f23565b610eb3600184600201600a9054906101000a900461ffff1661ffff1661143890919063ffffffff16565b83600201600a6101000a81548161ffff021916908361ffff160217905550610efb60018360020160089054906101000a900461ffff1661ffff1661143890919063ffffffff16565b8260020160086101000a81548161ffff021916908361ffff160217905550610f228361146c565b5b505050505050565b610f33610b2b565b610f3c57600080fd5b610f458161149f565b50565b6000808284610f579190611ff0565b90508363ffffffff168163ffffffff161015610f7657610f7561202a565b5b8091505092915050565b826005600082815260200190815260200160002060009054906101000a900473ffffffffffffffffffffffffffffffffffffffff1673ffffffffffffffffffffffffffffffffffffffff163373ffffffffffffffffffffffffffffffffffffffff1614610fec57600080fd5b60006004858154811061100257611001611d1d565b5b9060005260206000209060030201905061101b81611595565b61102457600080fd5b600254846110329190612088565b93506000600282600101548661104891906120b9565b611052919061210f565b905060405160200161106390612197565b604051602081830303815290604052805190602001208460405160200161108a91906121dd565b60405160208183030381529060405280519060200120036110d55760636064826110b49190612088565b826110bf91906121f4565b6110c991906120b9565b90506110d48261146c565b5b6111146040518060400160405280600681526020017f4e6f4e616d65000000000000000000000000000000000000000000000000000081525082611161565b505050505050565b6000808260405160200161113091906121dd565b6040516020818303038152906040528051906020012060001c9050600254816111599190612088565b915050919050565b60046040518060c00160405280848152602001838152602001600163ffffffff1681526020016003544261119591906120b9565b63ffffffff168152602001600061ffff168152602001600061ffff16815250908060018154018082558091505060019003906000526020600020906003020160009091909190915060008201518160000190805190602001906111f992919061166e565b506020820151816001015560408201518160020160006101000a81548163ffffffff021916908363ffffffff16021790555060608201518160020160046101000a81548163ffffffff021916908363ffffffff16021790555060808201518160020160086101000a81548161ffff021916908361ffff16021790555060a082015181600201600a6101000a81548161ffff021916908361ffff1602179055505050600060016004805490506112ae91906121f4565b9050336005600083815260200190815260200160002060006101000a81548173ffffffffffffffffffffffffffffffffffffffff021916908373ffffffffffffffffffffffffffffffffffffffff1602179055506113556001600660003373ffffffffffffffffffffffffffffffffffffffff1673ffffffffffffffffffffffffffffffffffffffff168152602001908152602001600020546115bc90919063ffffffff16565b600660003373ffffffffffffffffffffffffffffffffffffffff1673ffffffffffffffffffffffffffffffffffffffff168152602001908152602001600020819055507f88f026aacbbecc90c18411df4b1185fd8d9be2470f1962f192bf84a27d0704b78184846040516113cb93929190612228565b60405180910390a1505050565b60006113f06001600a546115bc90919063ffffffff16565b600a81905550814233600a5460405160200161140e939291906122cf565b6040516020818303038152906040528051906020012060001c6114319190612088565b9050919050565b6000808284611447919061230c565b90508361ffff168161ffff1610156114625761146161202a565b5b8091505092915050565b6003544261147a91906120b9565b8160020160046101000a81548163ffffffff021916908363ffffffff16021790555050565b600073ffffffffffffffffffffffffffffffffffffffff168173ffffffffffffffffffffffffffffffffffffffff16036114d857600080fd5b8073ffffffffffffffffffffffffffffffffffffffff1660008054906101000a900473ffffffffffffffffffffffffffffffffffffffff1673ffffffffffffffffffffffffffffffffffffffff167f8be0079c531659141344cd1fd0a4f28419497f9722a3daafe3b4186f6b6457e060405160405180910390a3806000806101000a81548173ffffffffffffffffffffffffffffffffffffffff021916908373ffffffffffffffffffffffffffffffffffffffff16021790555050565b6000428260020160049054906101000a900463ffffffff1663ffffffff1611159050919050565b60008082846115cb91906120b9565b9050838110156115de576115dd61202a565b5b8091505092915050565b8280546115f490611eb6565b90600052602060002090601f016020900481019282611616576000855561165d565b82601f1061162f57803560ff191683800117855561165d565b8280016001018555821561165d579182015b8281111561165c578235825591602001919060010190611641565b5b50905061166a91906116f4565b5090565b82805461167a90611eb6565b90600052602060002090601f01602090048101928261169c57600085556116e3565b82601f106116b557805160ff19168380011785556116e3565b828001600101855582156116e3579182015b828111156116e25782518255916020019190600101906116c7565b5b5090506116f091906116f4565b5090565b5b8082111561170d5760008160009055506001016116f5565b5090565b6000604051905090565b600080fd5b600080fd5b6000819050919050565b61173881611725565b811461174357600080fd5b50565b6000813590506117558161172f565b92915050565b600080604083850312156117725761177161171b565b5b600061178085828601611746565b925050602061179185828601611746565b9150509250929050565b6000602082840312156117b1576117b061171b565b5b60006117bf84828501611746565b91505092915050565b600081519050919050565b600082825260208201905092915050565b60005b838110156118025780820151818401526020810190506117e7565b83811115611811576000848401525b50505050565b6000601f19601f8301169050919050565b6000611833826117c8565b61183d81856117d3565b935061184d8185602086016117e4565b61185681611817565b840191505092915050565b61186a81611725565b82525050565b600063ffffffff82169050919050565b61188981611870565b82525050565b600061ffff82169050919050565b6118a68161188f565b82525050565b600060c08201905081810360008301526118c68189611828565b90506118d56020830188611861565b6118e26040830187611880565b6118ef6060830186611880565b6118fc608083018561189d565b61190960a083018461189d565b979650505050505050565b600073ffffffffffffffffffffffffffffffffffffffff82169050919050565b600061193f82611914565b9050919050565b61194f81611934565b811461195a57600080fd5b50565b60008135905061196c81611946565b92915050565b6000602082840312156119885761198761171b565b5b60006119968482850161195d565b91505092915050565b600081519050919050565b600082825260208201905092915050565b6000819050602082019050919050565b6119d481611725565b82525050565b60006119e683836119cb565b60208301905092915050565b6000602082019050919050565b6000611a0a8261199f565b611a1481856119aa565b9350611a1f836119bb565b8060005b83811015611a50578151611a3788826119da565b9750611a42836119f2565b925050600181019050611a23565b5085935050505092915050565b60006020820190508181036000830152611a7781846119ff565b905092915050565b611a8881611934565b82525050565b6000602082019050611aa36000830184611a7f565b92915050565b600080fd5b600080fd5b7f4e487b7100000000000000000000000000000000000000000000000000000000600052604160045260246000fd5b611aeb82611817565b810181811067ffffffffffffffff82111715611b0a57611b09611ab3565b5b80604052505050565b6000611b1d611711565b9050611b298282611ae2565b919050565b600067ffffffffffffffff821115611b4957611b48611ab3565b5b611b5282611817565b9050602081019050919050565b82818337600083830152505050565b6000611b81611b7c84611b2e565b611b13565b905082815260208101848484011115611b9d57611b9c611aae565b5b611ba8848285611b5f565b509392505050565b600082601f830112611bc557611bc4611aa9565b5b8135611bd5848260208601611b6e565b91505092915050565b600060208284031215611bf457611bf361171b565b5b600082013567ffffffffffffffff811115611c1257611c11611720565b5b611c1e84828501611bb0565b91505092915050565b60008115159050919050565b611c3c81611c27565b82525050565b6000602082019050611c576000830184611c33565b92915050565b600080fd5b600080fd5b60008083601f840112611c7d57611c7c611aa9565b5b8235905067ffffffffffffffff811115611c9a57611c99611c5d565b5b602083019150836001820283011115611cb657611cb5611c62565b5b9250929050565b600080600060408486031215611cd657611cd561171b565b5b6000611ce486828701611746565b935050602084013567ffffffffffffffff811115611d0557611d04611720565b5b611d1186828701611c67565b92509250509250925092565b7f4e487b7100000000000000000000000000000000000000000000000000000000600052603260045260246000fd5b6000602082019050611d616000830184611861565b92915050565b611d7081611c27565b8114611d7b57600080fd5b50565b600081519050611d8d81611d67565b92915050565b600081519050611da28161172f565b92915050565b6000806000806000806000806000806101408b8d031215611dcc57611dcb61171b565b5b6000611dda8d828e01611d7e565b9a50506020611deb8d828e01611d7e565b9950506040611dfc8d828e01611d93565b9850506060611e0d8d828e01611d93565b9750506080611e1e8d828e01611d93565b96505060a0611e2f8d828e01611d93565b95505060c0611e408d828e01611d93565b94505060e0611e518d828e01611d93565b935050610100611e638d828e01611d93565b925050610120611e758d828e01611d93565b9150509295989b9194979a5092959850565b7f4e487b7100000000000000000000000000000000000000000000000000000000600052602260045260246000fd5b60006002820490506001821680611ece57607f821691505b602082108103611ee157611ee0611e87565b5b50919050565b7f4e487b7100000000000000000000000000000000000000000000000000000000600052601160045260246000fd5b6000611f2182611725565b91507fffffffffffffffffffffffffffffffffffffffffffffffffffffffffffffffff8203611f5357611f52611ee7565b5b600182019050919050565b7f4572726f723a20796f75206f6e6c7920686176652061626c6520746f2063726560008201527f6174652031207a6f6d6269652000000000000000000000000000000000000000602082015250565b6000611fba602d836117d3565b9150611fc582611f5e565b604082019050919050565b60006020820190508181036000830152611fe981611fad565b9050919050565b6000611ffb82611870565b915061200683611870565b92508263ffffffff0382111561201f5761201e611ee7565b5b828201905092915050565b7f4e487b7100000000000000000000000000000000000000000000000000000000600052600160045260246000fd5b7f4e487b7100000000000000000000000000000000000000000000000000000000600052601260045260246000fd5b600061209382611725565b915061209e83611725565b9250826120ae576120ad612059565b5b828206905092915050565b60006120c482611725565b91506120cf83611725565b9250827fffffffffffffffffffffffffffffffffffffffffffffffffffffffffffffffff0382111561210457612103611ee7565b5b828201905092915050565b600061211a82611725565b915061212583611725565b92508261213557612134612059565b5b828204905092915050565b600081905092915050565b7f6b69747479000000000000000000000000000000000000000000000000000000600082015250565b6000612181600583612140565b915061218c8261214b565b600582019050919050565b60006121a282612174565b9150819050919050565b60006121b7826117c8565b6121c18185612140565b93506121d18185602086016117e4565b80840191505092915050565b60006121e982846121ac565b915081905092915050565b60006121ff82611725565b915061220a83611725565b92508282101561221d5761221c611ee7565b5b828203905092915050565b600060608201905061223d6000830186611861565b818103602083015261224f8185611828565b905061225e6040830184611861565b949350505050565b6000819050919050565b61228161227c82611725565b612266565b82525050565b60008160601b9050919050565b600061229f82612287565b9050919050565b60006122b182612294565b9050919050565b6122c96122c482611934565b6122a6565b82525050565b60006122db8286612270565b6020820191506122eb82856122b8565b6014820191506122fb8284612270565b602082019150819050949350505050565b60006123178261188f565b91506123228361188f565b92508261ffff0382111561233957612338611ee7565b5b82820190509291505056fea26469706673582212209d45bc466d6d0500550fcadc1c5653c1adf7a55b79cbda1b36eafe4312bfe6af64736f6c634300080d0033",
  "immutableReferences": {},
  "source": "// SPDX-License-Identifier: MIT\npragma solidity >=0.7.0 <0.9.1;\n\nimport \"./ZombieHelper.sol\";\n\ncontract ZombieAttack is ZombieHelper {\n    using SafeMath for uint256;\n    using SafeMath32 for uint32;\n    using SafeMath16 for uint16;\n\n\n//var to septup the probability of win\nuint attackVictoryProbability = 70;\n\n//We have to build a function that build a random number \n    uint randNonce = 0;\nfunction randMod(uint _modulus) internal returns(uint){\n    //increase the randNonce\n    randNonce = randNonce.add(1);\n    return uint(keccak256(abi.encodePacked(block.timestamp,msg.sender,randNonce))) % _modulus;\n    }\n\n//function attack this get the Id of 2 zombies \nfunction attack(uint _zombieId, uint _targetId) external onlyOwnerOf(_zombieId){\n//declare a storage the look up my zombies\nZombie storage myZombie = zombies[_zombieId];\nZombie storage enemyZombie = zombies[_targetId];\n//call ours randon function to determine the outcome of the battles\n uint rand = randMod(100);\n//here determine who zombies win and loss and increment de account\n if(rand <= attackVictoryProbability){\n    myZombie.winCount = myZombie.winCount.add(1);\n    myZombie.level = myZombie.level.add(1);\n    enemyZombie.lossCount = enemyZombie.lossCount.add(1);\n   //here I call the function an pass how feed the enemy Zombie\n    feedAndMultiply(_zombieId, enemyZombie.dna, \"zombie\");\n }else{\n    myZombie.lossCount = myZombie.lossCount.add(1);\n    enemyZombie.winCount = enemyZombie.winCount.add(1);\n    _triggerCooldown(myZombie);\n\n }\n\n}\n\n}",
  "sourcePath": "/Users/amilcar/cryptoZombies/cryptoZombiesRepo/cryptoZombie/contracts/zombieAttack.sol",
  "compiler": {
    "name": "solc",
    "version": "0.8.13+commit.abaa5c0e.Emscripten.clang"
  },
  "schemaVersion": "3.4.10",
  "updatedAt": "2022-10-19T22:40:58.079Z",
  "devdoc": {
    "kind": "dev",
    "methods": {
      "isOwner()": {
        "returns": {
          "_0": "true if `msg.sender` is the owner of the contract."
        }
      },
      "owner()": {
        "returns": {
          "_0": "the address of the owner."
        }
      },
      "renounceOwnership()": {
        "details": "Allows the current owner to relinquish control of the contract."
      },
      "transferOwnership(address)": {
        "details": "Allows the current owner to transfer control of the contract to a newOwner.",
        "params": {
          "newOwner": "The address to transfer ownership to."
        }
      }
    },
    "version": 1
  },
  "userdoc": {
    "kind": "user",
    "methods": {
      "renounceOwnership()": {
        "notice": "Renouncing to ownership will leave the contract without an owner. It will not be possible to call the functions with the `onlyOwner` modifier anymore."
      }
    },
    "version": 1
  }
}